:100000000C9448010C9470010C9470010C947001D4
:100010000C9470010C9470010C9470010C9470019C
:100020000C9470010C9470010C9454040C94FE0414
:100030000C940D040C9470010C9470010C947001DC
:100040000C94C3030C9470010C94FB050C943706BC
:100050000C9492060C9470010C9470010C94700135
:100060000C9470010C94700123082B083208380896
:100070003F08450860084C085508010A040A82092F
:10008000A5091A0AB909C109AF0AE009010AB909A3
:10009000040A8209A5091A0A450A580A6D0A084A7B
:1000A000D73B3BCE016E84BCBFFDC12F3D6C74318C
:1000B0009ABD56833DDA3D00C77F11BED9E4BB4CE3
:1000C0003E916BAAAABE000000803F05A84CCDB2AD
:1000D000D44EB93836A9020C50B9918688083CA68E
:1000E000AAAA2ABE000000803F005A44410056548C
:1000F0004700524D4300475356004753540047535F
:100100004100474C4C0047474100000000002400DC
:1001100027002A0000000000250028002B0004040E
:10012000040404040404020202020202030303039F
:10013000030301020408102040800102040810207B
:100140000102040810200000000800020100000362
:1001500004070000000000000000014C6174697495
:100160007564650000000000000000000000002031
:100170000000000000000900024C6F6E6769747592
:100180006465000000000000000000000020000086
:100190000000000009000353706565640000000062
:1001A00000000000000000000000006B6D2F6800E0
:1001B0000000010004416C746974756465000000FE
:1001C0000000000000000000006D000000000000C2
:1001D00001000544697374616E63650000000000EE
:1001E000000000000000006D0000000000000100A1
:1001F00000000000000000000000000000000000FF
:1002000000000000000000000000000000000608E0
:100210000600C8000100010006242400FFFF0703B8
:1002200000000000102700000500FA00FA0064003A
:100230002C01000000000000000000000000000091
:1002400006010800F0080000000000010601080097
:10025000F00500000000000106010800F0020000A7
:100260000000000106010800F0030000000000018A
:1002700006010800F0010000000000010601020173
:10028000FE00FA00F600F200EE00EA00D5143A157E
:1002900011241FBECFEFD8E0DEBFCDBF23E0ACE21C
:1002A000B1E001C01D92A730B207E1F711E0A0E074
:1002B000B1E0E4EAF5E302C005900D92AC32B1077B
:1002C000D9F711E0C7E4D1E004C02197FE010E94F4
:1002D0005B19C634D107C9F70E94CA0D0C94C51A20
:1002E0000C940000CF92DF92EF92FF920F931F9336
:1002F000CF93DF936C017A018B01C0E0D0E0CE1583
:10030000DF0589F0D8016D918D01D601ED91FC9149
:100310000190F081E02DC6010995892B11F47E0131
:1003200002C02196ECCFC701DF91CF911F910F91B1
:10033000FF90EF90DF90CF900895CF93DF9390E000
:10034000FC01EE5CFE4F2491FC01E25EFE4F8491C5
:10035000882361F190E0880F991FFC01E65FFE4F52
:10036000C591D491FC01EC5EFE4FA591B491611151
:1003700009C09FB7F8948881209582238883EC91E7
:100380002E230BC0623061F49FB7F8943881822F1E
:10039000809583238883EC912E2B2C939FBF06C0DE
:1003A0008FB7F894E8812E2B28838FBFDF91CF91F0
:1003B00008953FB7F8948091CD019091CE01A0911E
:1003C000CF01B091D00126B5A89B05C02F3F19F0F1
:1003D0000196A11DB11D3FBFBA2FA92F982F8827C5
:1003E000820F911DA11DB11DBC01CD0143E0660F1F
:1003F000771F881F991F4A95D1F708958F929F9272
:10040000AF92BF92CF92DF92EF92FF926B017C018D
:100410000E94D9014B015C01C114D104E104F10433
:10042000F1F00E94D901DC01CB0188199909AA09D0
:10043000BB09883E9340A105B10570F321E0C21AC3
:10044000D108E108F10888EE880E83E0981EA11C0F
:10045000B11CC114D104E104F10419F7DDCFFF9000
:10046000EF90DF90CF90BF90AF909F908F900895C6
:100470002FB7F8946091C9017091CA018091CB01A6
:100480009091CC012FBF08955091D5014091D40196
:10049000852F90E0242F30E0541710F4805B9F4F9D
:1004A000821B930B08958091D501E091D4018E17A2
:1004B00051F0EF5FE03508F0E0E0F0E0E858FE4F83
:1004C000808190E008958FEF9FEF08958091D5018E
:1004D0009091D401891769F09F5F903508F090E002
:1004E000E92FF0E0E858FE4F80819093D40190E02E
:1004F00008958FEF9FEF08959091D2019F5F9434FC
:1005000008F090E02091D1012917E1F32FB7F8947A
:100510003091D301332341F0E92FF0E0E25DFE4F4B
:1005200080839093D2011DC091E09093D30180937A
:1005300073011092720182E086BB80916F0082602D
:1005400080936F00809180008F738068809380001B
:1005500080918400909185004096909389008093CB
:1005600088002FBF08958091D3018111FCCF089599
:100570001F93CF93DF93F894EC01CA57DF4F288184
:10058000203400F5DC01AE57BF4F1C9111965C91F1
:10059000119770E0411103C020E030E002C020E07C
:1005A00031E0622B732BE12FF52F7183608332963C
:1005B00028812F5F2883EA17FB0710F0FC01329691
:1005C000ED93FC93FC01E057FF4F8081811108C03F
:1005D00081E080838091C1008F7688628093C10022
:1005E0007894DF91CF911F910895FC01E157FF4F5F
:1005F0002081222301F1F894A0912C01B0912D01CA
:10060000A357BF4F0D90BC91A02D4C91208121503C
:1006100020833297208131812F5F3F4FBC01655786
:100620007F4F2617370718F09C0129573F4F31831A
:100630002083789401C040E0842F08951092C00078
:100640008CE08093C10086E38093C2001092C500C5
:1006500082E38093C40062E080E00E949D0162E03A
:1006600081E00C949D0108950895EF92FF920F93FD
:100670001F93CF93DF93EC018B0185EB0E947C02EB
:1006800082E60E947C027E01E00EF11E00E010E096
:10069000CE15DF0541F0FE018491180F010F0E9475
:1006A0007C022196F5CF812F0E947C02802FDF9162
:1006B000CF911F910F91FF90EF900C947C02862FA9
:1006C0000E947C0281E090E00895FC011082089570
:1006D000FC01148215821682178210821182128206
:1006E0001382118610861386128615861486178645
:1006F0001686118A108A138A128A148A168A178A11
:10070000158A81E0818F828F138E87E0808F148E0F
:10071000158ECF014E960C946503089580E090E00D
:100720000895CF93DF93EC010E941E03FE013296E1
:1007300080E8DF011D928A95E9F7DE01AE57BF4FD1
:100740001196FC93EE9312961196FC93EE93EC5750
:10075000FF4F1082319610821182128213821796F7
:100760001196FC93EE931296ED93FC9338961082BB
:1007700031961082D0932D01C0932C01DF91CF913F
:1007800008950E948E1A1F920F920FB60F92112495
:100790002F933F938F939F93AF93BF938091C90102
:1007A0009091CA01A091CB01B091CC013091C801C8
:1007B00026E0230F2D3720F40296A11DB11D05C0A0
:1007C00029E8230F0396A11DB11D2093C801809332
:1007D000C9019093CA01A093CB01B093CC01809141
:1007E000CD019091CE01A091CF01B091D0010196A1
:1007F000A11DB11D8093CD019093CE01A093CF0197
:10080000B093D001BF91AF919F918F913F912F9164
:100810000F900FBE0F901F9018951F920F920FB65A
:100820000F9211242F938F939F93EF93FF938091B7
:100830006F008B7F80936F00809181008F7B80930E
:1008400081008091D6012091770120589091760106
:10085000893020F49695922B8F5FFACF9093760192
:100860008091D5018F5F803508F080E02091D40120
:10087000821739F0E82FF0E0E858FE4F908380931C
:10088000D5011092D601809181008F7B80938100E9
:1008900010927701FF91EF919F918F912F910F907F
:1008A0000FBE0F901F9018951F920F920FB60F92C8
:1008B00011242F933F934F935F936F937F938F9365
:1008C0009F93AF93BF93EF93FF9380918600909196
:1008D00087004091770120918100442331F02F7BE4
:1008E000209381001092770106C02064209381003C
:1008F00020E8209377013091D601311125C04111B4
:100900006CC02091D7013091D801280F391F309346
:100910008B0020938A0024E026BB20916F00246086
:1009200020936F002091D9013091DA01820F931F3B
:1009300036952795820F931F9093750180937401CC
:1009400081E08093D60149C04091740150917501B6
:100950006091D9017091DA01DB01A095B0952091E9
:100960007601E0917701841B950BA817B90768F110
:1009700026952E2B460F571F3F5F861B970B39304E
:10098000A0F32093760180916F008B7F80936F009E
:100990008091D5018F5F803508F080E09091D4017F
:1009A000891749F0E82FF0E090917601E858FE4F62
:1009B00090838093D501809181008F7B809381000B
:1009C000109277011092D60108C0209376015093BF
:1009D0007501409374013093D601FF91EF91BF915F
:1009E000AF919F918F917F916F915F914F913F91C7
:1009F0002F910F900FBE0F901F9018951F920F927E
:100A00000FB60F9211242F933F934F935F936F93E1
:100A10007F938F939F93EF93FF938091D301609186
:100A2000730120918800309189004091D901509143
:100A3000DA01909172018A30F8F4240F351F893061
:100A400019F0762F717001C071E066958F5F79178C
:100A500091F390918000772311F0906C02C09F7306
:100A60009068909380003093890020938800709361
:100A70007201609373014AC09091D201E091D1015B
:100A80009E1319C08A3051F48BE08093D301240F58
:100A9000351F30938900209388003AC01092D3010B
:100AA000809180008F738093800080916F008D7F94
:100AB00080936F002DC0EF5FE43408F0E0E0E09336
:100AC000D101F0E0E25DFE4F9081909373011092AE
:100AD0007201909180009F739068909380008A309B
:100AE00059F48091D9019091DA01280F391F309380
:100AF00089002093880009C080918400909185002E
:100B00004096909389008093880081E08093D30180
:100B1000FF91EF919F918F917F916F915F914F9195
:100B20003F912F910F900FBE0F901F9018958F92AD
:100B30009F92AF92BF92CF92DF92EF92FF924B01C2
:100B40005C016B017C0184E0F694E794D794C79430
:100B50008A95D1F7D501C40122E0B695A79597955E
:100B600087952A95D1F7C80ED91EEA1EFB1ED7011C
:100B7000C60134E0B695A795979587953A95D1F734
:100B8000C80ED91EEA1EFB1EBB27AF2D9E2D8D2D34
:100B9000C80ED91EEA1EFB1EC701AA27BB27C80E16
:100BA000D91EEA1EFB1EA3E0B0E0A70196010E9439
:100BB0007415A5019401261B370B480B590BABE0AC
:100BC000B0E00E947415DC01CB0165E0B695A795F5
:100BD000979587956A95D1F7BC01CD016C0D7D1D68
:100BE0008E1D9F1DFF90EF90DF90CF90BF90AF9034
:100BF0009F908F9008951F920F920FB60F9211241D
:100C00002F933F938F939F93AF93BF93EF93FF9354
:100C10008091C600803FF1F0982F9F70D9F4209109
:100C20002C0130912D01F901E557FF4FA081B181D1
:100C30008C93D901A157BF4F8C918F5F8C9380818A
:100C4000918101968E179F0718F0C90189579F4F10
:100C500091838083FF91EF91BF91AF919F918F918D
:100C60003F912F910F900FBE0F901F9018951F92DC
:100C70000F920FB60F9211242F933F934F935F93D0
:100C80008F939F93EF93FF9380912C0190912D016F
:100C9000FC01EA57FF4F2081222351F13297019046
:100CA000F081E02D208131818091C10030FF02C0B0
:100CB000816001C08E7F8093C1002093C600209187
:100CC0002C0130912D01F901EA57FF4F80818150AD
:100CD00080833297808191810296A9014E575F4FA0
:100CE0008417950710F0C9010296918380830DC087
:100CF0008091C1008F7D80648093C100E0912C01C0
:100D0000F0912D01E057FF4F1082FF91EF919F91DD
:100D10008F915F914F913F912F910F900FBE0F9048
:100D20001F9018951F920F920FB60F9211242F93B8
:100D30003F938F939F93EF93FF93E1ECF0E08081DB
:100D4000877B8069808380912C0190912D019C018B
:100D500029573F4FFC01E557FF4F318320833296DF
:100D60003183208332961082FF91EF919F918F9172
:100D70003F912F910F900FBE0F901F901895CF921B
:100D8000DF92EF92FF920F931F93CF93DF93CDB734
:100D9000DEB76E970FB6F894DEBF0FBECDBF8C01E5
:100DA0007B016A012EE1269FC001279F900D11242F
:100DB000DA015A966D917C915B97680F791F4EE12D
:100DC00050E0CE0101960E9458158D8DF801868F56
:100DD00089818283EE0CFF1CEE0CFF1CD6015C9611
:100DE000ED91FC915D97EE0DFF1D80819181A281B7
:100DF000B381F80183839483A583B683A801485FF8
:100E00005F4FFE013296DA0190E08191811106C0B8
:100E1000392FD8015C969C93232F0FC0933119F082
:100E20009F5F8D93F2CF33E1F4CF8331910594F43A
:100E3000FA01E80FF91F70832F5F622F631BE1E057
:100E4000F0E0EC0FFD1FE60FF11D7589822F90E099
:100E50007111EBCFF801658FFA01E80FF91F1082CD
:100E60008E8D813031F0823041F480E4F801878F3B
:100E700004C080E2D8015F968C93D8015E968C9175
:100E8000843091F030F4882361F08130A1F483E064
:100E90000FC0883041F0893051F0853061F484E032
:100EA00007C082E001C085E0F80180A304C085E0AE
:100EB000D80190968C936E960FB6F894DEBF0FBE55
:100EC000CDBFDF91CF911F910F91FF90EF90DF90F9
:100ED000CF900895FC018091DD02882321F06C32CF
:100EE00009F04CC018C011821082138212828091C6
:100EF000DF0282608093DF021092DE0281E06D32B9
:100F000009F080E09091DF0280FB90F99093DF027E
:100F1000882329F366C08091DE02811103C081E03D
:100F20008093DE0282819381892B99F48091DF0284
:100F300080FF22C08281938191958195910993834D
:100F4000828380819181919581959109918380839C
:100F500013C02AE08091DE0291E0980F9093DE02A8
:100F6000481720F362817381269FC001279F900D4F
:100F7000112493838283EECF81E008956E3221F4B1
:100F800081E08093DE022DC08091DE02811112C0CB
:100F9000208131814AE0429FC001439F900D11247E
:100FA000062E000C770B60537109680F791F71834F
:100FB000608317C091E0980F9093DE02481788F085
:100FC000228133814AE0429FC001439F900D11244A
:100FD000062E000C770B60537109680F791F73831D
:100FE000628380E00895813311F0813411F483E04D
:100FF00014C0803321F08E3411F0863519F410922C
:10100000D9020DC0823311F0843411F484E005C09C
:10101000863311F0853441F481E08093D9028091C8
:10102000DA0281608093DA0280E00895E091DD02C7
:101030004E2F50E04930510508F042C0FA01EC5CF7
:10104000FF4F0C945B198C32D9F1880F8056982F82
:10105000990F990F03C09091D3029053890F8093F9
:10106000D3022EC0880F8056982F990F990F03C076
:101070009091D2029053890F8093D20221C0880FA1
:101080008056982F990F990F03C09091D1029053D9
:10109000890F8093D10214C0880F8056982F990F22
:1010A000990F890F8093D8020BC09091D80290536A
:1010B000890F8093D8028091DA0284608093DA02EB
:1010C00081E00895CF92DF92EF92FF921F93CF932A
:1010D000DF93EC01162F8091DD0281110BC0188285
:1010E00019821A821B821092DE028091DF028260D6
:1010F0008093DF021E3291F01C3209F07FC0809194
:10110000DE02882359F08091DE02843099F528812F
:1011100039814A815B81A4E6B0E046C081E08093DA
:10112000DE022981822F82958F702F703AE0839F93
:10113000200D11248A8181112C598881982F929534
:101140009F708F703AE0939F800D112490E03CE3F4
:10115000239F800D911D1124092E000CAA0BBB0B9F
:1011600088839983AA83BB831E3209F4A9C01C32E9
:1011700051F244C0853039F4288139814A815B813C
:10118000AAE0B0E011C08630F1F008F09BC02881E1
:1011900039814A815B81833019F4A8EEB3E004C041
:1011A000823029F4A0E1B7E20E94741508C08130B2
:1011B00051F460EA76E881E090E00E94641568836B
:1011C00079838A839B83C880D980EA80FB80D7019A
:1011D000C601880F991FAA1FBB1FBC01CD016F5FFD
:1011E0007F4F8F4F9F4F0E949705C60ED71EE81E58
:1011F000F91EC882D982EA82FB8264C08091DE0235
:10120000811118C0812F110F990BC097092E000C66
:10121000AA0BBB0B488159816A817B8134E0440F62
:10122000551F661F771F3A95D1F7842B952BA62B58
:10123000B72B42C08F5F8093DE028730C0F42881D5
:1012400039814A815B81AAE0B0E00E947415212FA8
:10125000110F330B205331096901330FEE08FF08DA
:10126000DC01CB018C0D9D1DAE1DBF1D25C087303F
:1012700039F5C880D980EA80FB80D701C601880F84
:10128000991FAA1FBB1FBC01CD016F5F7F4F8F4FFE
:101290009F4F0E949705DC01CB018C0D9D1DAE1D5B
:1012A000BF1D193324F00296A11DB11D05C01433D2
:1012B0001CF00196A11DB11D88839983AA83BB836D
:1012C00080E001C081E0DF91CF911F91FF90EF900E
:1012D000DF90CF900895682F8091AF02813021F088
:1012E000863009F480C03BC1E091DC028E2F90E093
:1012F000FC013197E930F10508F031C1E35CFF4FA3
:101300000C945B198091DF0282FF29C18091DD027C
:10131000811125C1633509F022C18091BC029091F1
:10132000BD02A091BE02B091BF02B095A09590956C
:1013300081959F4FAF4FBF4F8093BC029093BD02EA
:10134000A093BE02B093BF020AC16C3249F48091EF
:10135000DD02811105C08091DF028B7F8093DF0267
:101360008091DF0282FFFBC080EC92E00E94620865
:10137000F6C08091DD028111F2C0862F0E94F30732
:10138000EEC08091DF028E7F8093DF0281E06C32BD
:1013900009F080E09091DD02911104C08111DFC05D
:1013A00060530BC08111D6C08091D002880F982F56
:1013B000990F990F890F8053680F6093D002CAC0AC
:1013C00042E084EC92E00E946A07882309F4C7C0D7
:1013D00021E09091DD02911101C020E09091DA02AC
:1013E00020FB94F977C0E091DC028E2F90E0FC01A5
:1013F0003197E930F10508F0B2C0EA5BFF4F0C9479
:101400005B19862F0C9416088091DD02882339F031
:101410008091DF0282FFA3C08CEB92E0A7CF91E026
:101420006C3209F490E08091DF0290FB82F98093A6
:10143000DF02EECF9091DF0292FB882780F992FFC6
:101440008EC09091DD0291118AC09091DA0298606D
:101450009093DA02673509F082C04091C002509142
:10146000C1026091C2027091C3027095609550955F
:1014700041955F4F6F4F7F4F4093C0025093C10221
:101480006093C2027093C302089543E088EC92E037
:101490000E946A07882309F462C021E09091DD026E
:1014A000911101C020E09091DA0220FB95F912C061
:1014B00042E08CEC92E00E946A07882309F44FC056
:1014C00021E09091DD02911101C020E09091DA02BB
:1014D00020FB96F99093DA0208958091DD02823024
:1014E00019F140F48823A9F08130C9F58091D50223
:1014F000805316C0843029F1E8F0853081F5809161
:10150000D7028053680F6093D7028091DA0282601D
:1015100024C06C3221F1660F6056862F880F880F29
:10152000680F6093D5021BC0660F6056862F880F28
:10153000880F03C08091D6028053680F6093D60253
:101540000EC0660F6056862F880F880F680F609355
:10155000D70205C08091DA0280688093DA0281E0C8
:101560000895CF93DF938091690290916A02DC0124
:10157000ED91FC910280F381E02D40E06EEF099542
:1015800080918B02882311F1CBE8D2E0809169022F
:1015900090916A026991DC01ED91FC910280F381E6
:1015A000E02D41E00995B2E0CB3ADB0779F7809175
:1015B000690290916A02DC01ED91FC910280F38155
:1015C000E02D40E06FEFDF91CF910994C0E2D0E0D1
:1015D0008091690290916A02DC01ED91FC91028098
:1015E000F381E02D41E060E00995219789F7DFCF95
:1015F0002F923F924F925F926F927F929F92AF9203
:10160000BF92CF92DF92EF92FF920F931F93CF93EF
:10161000DF93CDB7DEB7A1970FB6F894DEBF0FBE4C
:10162000CDBF811118C010926D02109273021091FB
:101630003C02812F880F880F880F80937402412FFE
:1016400050E068E272E085E792E00E94A61ABAE0F4
:101650009B2E910EA8C1282F269530E04091410283
:1016600050914202421753070CF473C080FD71C0C1
:1016700000E010E0CC24CA94DC2C76018091410279
:1016800090914202081719070CF061C020914402A2
:10169000622F70E01B82CC82DD82EE82FF821D8E83
:1016A0001E8E1F8E18A219A2FB01A3E0F595E795E7
:1016B000AA95E1F7EB59FD4F808190E0277002C0B9
:1016C000959587952A95E2F7817099278887892BC8
:1016D00031F043E252E0CE0101960E94BF068091B4
:1016E00044028F5F8093440290E020914102309148
:1016F00042028217930714F01092440288858823CF
:1017000019F110926D028B81809373028D8D28E008
:10171000829FC00111249E8D892B8093740280E0EA
:101720002AE0280FE9E0F0E0EC0FFD1FE80FF11DC3
:101730009081992339F08F5FE22FF0E0E559FD4F5A
:101740009083EECF922E2FC10F5F1F4F97CF912C1A
:101750002AC180E480936D0200E010E058E0952EED
:10176000CC24CA94DC2C76017AE1672E712C20916E
:101770004302622F70E01B82CC82DD82EE82FF8208
:101780001D8E1E8E1F8E18A219A2FB0143E0F59537
:10179000E7954A95E1F7EB59FD4F808190E027707E
:1017A00002C0959587952A95E2F7817099278887D9
:1017B000892B31F043E252E0CE0101960E94BF0630
:1017C000809143028F5F8093430290E0A09041029A
:1017D000B09042028A159B0514F01092430288854E
:1017E000882309F4D0C08C819D81AE81BF818F3F59
:1017F0005FEF9507A507B50709F4C5C03B81692DC3
:1018000070E04F8D51E0590D303168F065597D4FD2
:10181000242F2F70FB01208322E0290DE52FF0E01B
:10182000E559FD4F0BC0252F65597D4F50E1359F80
:10183000F0011124342F3F703E2BFB01308369A14E
:1018400070E030E04430B9F128F4442369F04130CD
:10185000D9F095C0483009F466C0493009F480C019
:10186000453009F08CC042C0482F4F71B7FD02C00F
:1018700080E001C080E8F901E559FD4F842B98A173
:10188000892B808381E07CC0F901E559FD4F80837D
:10189000A9014F5F5F4FE92FEF71B7FD02C080E0F4
:1018A00001C080E8DA01A559BD4F8E2B98A1892B84
:1018B0008C9382E065C0A9014D5D5D4FFA01E85B44
:1018C000FF4F808331969083A9014E5F5F4FEA2FCF
:1018D000EF71B7FD02C080E001C080E8DA01A559D0
:1018E000BD4F8E2B98A1892B8C931BC0A9014D5DF8
:1018F0005D4FFA01E85BFF4F808331969083A90129
:101900004E5F5F4F1D01552437FC5094452CB7FDA9
:1019100002C080E001C080E8FA01E559FD4F282AA5
:10192000208283E02DC0A9014D5D5D4FFA01E85B87
:10193000FF4F8083319690833196A083A9014D5F3C
:101940005F4FEB2FEF71B7FD02C080E001C080E870
:10195000DA01A559BD4F8E2B98A1892B8C930DC010
:10196000A9014D5D5D4FFA01E85BFF4F8083319621
:1019700090833196A0833196B08384E001C080E0EB
:10198000982E920E02C060E070E00F5F1F4F0A15A4
:101990001B054CF4892D90E09301261B370B821711
:1019A00093070CF4E4CE8EE780936B028FE2809372
:1019B0006C0280916D029EEF990D892B80936D02D0
:1019C00089E080936E0284EA80936F028091AD0279
:1019D000809370028091AE02809371021092720225
:1019E000292D30E0EDE6F2E080E092E09E1B57E02A
:1019F000492F4E0F491560F44191842748E087FF35
:101A000003C0880F852701C0880F4150C1F7F0CF70
:101A1000F901E559FD4F80838091690290916A0236
:101A2000DC01ED91FC910280F381E02D40E06EE756
:101A3000099511E0911698F08091690290916A02DF
:101A4000DC01ED91FC91A12FB0E0A559BD4F0280C2
:101A5000F381E02D41E06C9109951F5FEBCFA196DA
:101A60000FB6F894DEBF0FBECDBFDF91CF911F91AF
:101A70000F91FF90EF90DF90CF90BF90AF909F902D
:101A80007F906F905F904F903F902F90089520919E
:101A90003F02309140022115310589F0803278F4FF
:101AA000E82FF0E0ED5DFD4F82A1F90194E0899F00
:101AB000E00DF11D112440835183628373830895E7
:101AC0004F925F926F927F92AF92BF92CF92DF92CE
:101AD000EF92FF920F931F93CF93DF9300D000D02C
:101AE000CDB7DEB7082FA62E69017A01AE014F5F90
:101AF0005F4FC701B6010E943B182B013C01898151
:101B00009A81AB81BC81BC01CD019F770E94EC160C
:101B1000B62E172F2AE939E949E15FE3C301B20183
:101B20000E946F1820E030E543EC57E40E946F18E4
:101B30009F770E94EC163B011170A11002C090E04B
:101B400001C090E2192B20E030E0A901C701B601E5
:101B50000E946D16881F8827881F8295880F880F1E
:101B6000807C712F782BA3016B2D802F0F900F900D
:101B70000F900F90DF91CF911F910F91FF90EF90F9
:101B8000DF90CF90BF90AF907F906F905F904F901D
:101B90000C94470DCF93DF93CDB7DEB7E8970FB620
:101BA000F894DEBF0FBECDBF789484B5826084BD4B
:101BB00084B5816084BD85B5826085BD85B5816051
:101BC00085BD80916E00816080936E0010928100CF
:101BD000809181008260809381008091810081608A
:101BE000809381008091800081608093800080914B
:101BF000B10084608093B1008091B00081608093D7
:101C0000B00080917A00846080937A0080917A009D
:101C1000826080937A0080917A008E7F80937A0030
:101C200080917A00806880937A001092C1001092AF
:101C30006F001092800081E88093810081E493E03E
:101C40009093DA018093D90189E19EE19093D801C4
:101C50008093D70162E088E00E949D01EFE4F1E00B
:101C60008491EBE3F1E09491E7E2F1E0E491EE237B
:101C7000B1F1882339F1833091F038F48130A9F043
:101C8000823001F584B58F7D12C0873091F08830A5
:101C9000A1F08430B9F4809180008F7D03C08091E1
:101CA00080008F77809380000DC084B58F7784BDCE
:101CB00009C08091B0008F7703C08091B0008F7D04
:101CC0008093B000F0E0EE0FFF1FEC5EFE4FA59199
:101CD000B4918FB7F894EC919E2B9C938FBF61E0E9
:101CE00089E00E949D011092D6011092D5011092B8
:101CF000D4011092D3011092D2011092D10110E2BE
:101D000016BB10936F006CE070E080E792E00E94D9
:101D100035036AEF70E080E090E00E94FE016CE025
:101D200070E084E692E00E9435036AEF70E080E0A4
:101D300090E00E94FE016CE070E088E592E00E9475
:101D400035036AEF70E080E090E00E94FE016CE0F5
:101D500070E08CE492E00E9435036AEF70E080E06E
:101D600090E00E94FE016CE070E080E492E00E944E
:101D700035036AEF70E080E090E00E94FE0168E2C7
:101D800070E088E192E00E9435036AEF70E080E045
:101D900090E00E94FE016AE070E08EE092E00E9416
:101DA00035036AEF70E080E090E00E94FE0181E080
:101DB0008093000186E78093AD0282E38093AE02B8
:101DC000F0903C02FF2039F011E001E0A0E02A2E63
:101DD000A0E03A2E45C1EBE6F2E0DF01212F1D9293
:101DE0002A95E9F740E250E060E270E08BE892E08B
:101DF0000E94AF1A43E150E067E271E088E292E0AE
:101E00000E94B61A83E080933C0280914102909137
:101E10004202892B99F58AE591E090933E028093E6
:101E20003D02E5E4F2E0DF011D921A95E9F700E0DA
:101E300010E060913D0270913E02600F711F4EE113
:101E400050E0CE0101960E945815E981EE23B1F0D1
:101E5000E03220F4F0E0ED5DFD4FF2A2809141020E
:101E60009091420201969093420280934102025E59
:101E70001F4FF394003CB3E01B07D9F600914102D9
:101E800010914202013CEFE11E0730F4C801880FB7
:101E9000991F880F991F02C08FEF9FEF0E94611951
:101EA000FC0120E030E04FEF5FEFBA01201731076F
:101EB00039F041935193619371932F5F3F4FF6CF68
:101EC00080933F029093400281E990E00E94611963
:101ED00021E9DC011D922A95E9F72DE131E0FC01B1
:101EE0003183208390936A02809369020E94910358
:101EF0001092270210924402109243020E9438026C
:101F00006B017C01F0EDCF0EF7E0DF1EE11CF11C50
:101F100080913D0290913E02892B61F10E9438022E
:101F20006C157D058E059F0528F504E010E00E94E4
:101F3000B10A66E970E080E090E00E94FE01015085
:101F40001109A9F700E010E080914102909142024E
:101F500080179107ECF2802F880F0E94F80A0E94E8
:101F6000B10A66E970E080E090E00E94FE010F5F38
:101F70001F4FEACF8091690290916A02DC01ED91D6
:101F8000FC910480F581E02D09958111F3CF1CCFE0
:101F9000E0911702F09118020284F385E02D87E1A9
:101FA00092E00995982F4091B8025091B902609142
:101FB000BA027091BB024F5F5F4F6F4F7F4F4093EC
:101FC000B8025093B9026093BA027093BB02843294
:101FD00009F04BC08091DF0284FF03C08F7E8093A5
:101FE000DF021092DB021092AF020093E002109227
:101FF000DD028091DF028D7F8093DF02E091170286
:10200000F09118020084F185E02D87E192E00995B6
:10201000892B09F0BDCF809100038111BDC1809152
:10202000DF0283FF03C0877F8093DF02C09023021B
:10203000D0902402E0902502F090260296E9C90E85
:10204000D11CE11CF11C0E9438026C157D058E0527
:102050009F0508F0FAC32114310411F00E9400001A
:10206000E8E0EE2E82E0F82EC9CF2091E002223087
:1020700069F58A3221F4B3E0B093E0021EC080EE2D
:10208000890F8F3508F0F1C08091DB02892780939A
:10209000DB02892F98AF0E946B0998AD882309F461
:1020A000E4C09C3269F48091DF028D7F8093DF026F
:1020B0008091DC028F5F8093DC021092DD029ECF64
:1020C0008091DD028F5F8093DD0298CF213009F08F
:1020D00055C08091DB0289278093DB029C3229F472
:1020E0008091AF02811154C44EC4B090DD02E1E092
:1020F000EB1508F044C47EEFA72EAB0C8091AF0225
:10210000882319F08150883008F080E0E82FF0E053
:10211000EE0FFF1FE458FD4F25913491AA2DB0E03A
:10212000F901EA0FFB1FE4919E1304C08F5F8093B7
:10213000AF0225C49E170CF426C48F5F883009F4C3
:1021400022C4E82FF0E0EE0FFF1FE458FD4F659129
:102150007491A9016B01C21AD30AE42FE21BEA159C
:1021600010F09B01DDCFFA019490F601E40FF51F0A
:10217000E4914F5F5F4F9E1681F3F3CF233009F058
:1021800079C090628FE9890F863010F4975501C0AD
:1021900090534091DD022091DB02892F90E04111A4
:1021A0000DC00093DD0230E044E0359527954A9557
:1021B000E1F72817390709F421CF44C02F7030E028
:1021C0002817390709F03EC08091DF0281FF09C05E
:1021D0008D7F8093DF024F5F4093DD028CE20E948F
:1021E0006B098091B0029091B102A091B202B091BE
:1021F000B3020196A11DB11D8093B0029093B1026C
:10220000A093B202B093B30291E02091AF0280910B
:102210000001281390E08091DF0290FB84F9809305
:10222000DF021092E00220910003222341F1886036
:102230008093DF021092010380910003815080930C
:1022400000031DC08091B4029091B502A091B60226
:10225000B091B7020196A11DB11D8093B402909375
:10226000B502A093B602B093B7028AED92E00E9445
:10227000650389C32111C2CE1092AF02BFCE8091F7
:10228000DA0280FF0CC03091FF022091D90230FFAA
:1022900004C03091FE02321710F42093FE0281FF39
:1022A0000CC02091D5022093FA022091D6022093EF
:1022B000FB022091D7022093FC0282FF10C02091E4
:1022C000D3022093F8022091D2022093F7022091AA
:1022D000D1022093F6022091D8022093FD0283FFC1
:1022E00009C0ECEBF2E0A1EEB2E08E2D01900D9270
:1022F0008A95E1F78091DA0284FF10C04091C40210
:102300005091C5026091C6027091C7024093E902E4
:102310005093EA026093EB027093EC0286FF10C0C8
:102320004091CC025091CD026091CE027091CF02CB
:102330004093F1025093F2026093F3027093F4021F
:1023400085FF10C04091C8025091C9026091CA0235
:102350007091CB024093ED025093EE026093EF0236
:102360007093F00287FF04C08091D0028093F50241
:102370002091FF028091DA02822B8093FF02992341
:1023800009F43CCE1092020380910003811136CEF5
:10239000F1E0F093000366CECE0101960E9468033F
:1023A000809100038823C1F08150809300038091C5
:1023B00001032FE1289FC0011124FC01EF51FD4FC3
:1023C000DE01119601900D922A95E1F78F519D4FF4
:1023D0000E946803109201038FE1FE013196A8EF7D
:1023E000B1E001900D928A95E1F78091F70181119A
:1023F00057C08091160283FF51C08091F601811170
:102400000DC01093F6010E9438026093F2017093A0
:10241000F3018093F4019093F50142C00E943802C9
:10242000C090F201D090F301E090F401F090F5013A
:10243000DC01CB018C199D09AE09BF09893B9B408A
:10244000A105B10568F11093F70160910002709148
:102450000102072E000C880B990B0E941D176B01BF
:102460007C018091020290910302BC01990F880BBC
:10247000990B0E941D172AE037ED43E25CE30E94AE
:102480006F189B01AC01C701B6010E948F150E9415
:10249000E5167093F1016093F00102C01092F7010C
:1024A0008091F701882309F49FC16091F801709130
:1024B000F9018091FA019091FB010E941D1725E915
:1024C0003FEB46ED53E30E946F1868A379A38AA3FC
:1024D0009BA36093EC017093ED018093EE019093C8
:1024E000EF016091FC017091FD018091FE019091DE
:1024F000FF010E941D1725E93FEB46ED53E30E94C3
:102500006F186CA37DA38EA39FA36093E8017093C3
:10251000E9018093EA019093EB018091E701811139
:102520001AC01093E70188A199A1AAA1BBA1809329
:10253000E3019093E401A093E501B093E6018CA13F
:102540009DA1AEA1BFA18093DF019093E001A09374
:10255000E101B093E2012091DF013091E00140916F
:10256000E1015091E2016CA17DA18EA19FA10E9489
:102570008E1525E33AEF4EE85CE30E946F186B017D
:102580007C010E94DC186CAB7DAB8EAB9FABC701AE
:10259000B6010E94721668A779A78AA79BA725E3B0
:1025A0003AEF4EE85CE368A179A18AA19BA10E9461
:1025B0006F186B017C0125E33AEF4EE85CE3609114
:1025C000E3017091E4018091E5019091E6010E94A0
:1025D0006F182B013C01C701B6010E94DC184B01AA
:1025E0005C01C701B6010E9472166CA77DA78EA779
:1025F0009FA7C301B2010E94DC1868AB79AB8AAB1C
:102600009BABC301B2010E9472166B017C0128A929
:1026100039A94AA95BA96CA57DA58EA59FA50E9495
:102620006F182B013C01A7019601C501B4010E945E
:102630006F1828A539A54AA55BA50E946F189B01B4
:10264000AC01C301B2010E948E159B01AC010E9436
:102650006F182B013C012CA93DA94EA95FA9C70108
:10266000B6010E946F189B01AC010E946F189B017C
:10267000AC01C301B2010E948F150E94EA182B0120
:102680003C0128A939A94AA95BA9C501B4010E9446
:102690006F184B015C01A70196016CA57DA58EA565
:1026A0009FA50E946F1828A539A54AA55BA50E9481
:1026B0006F189B01AC01C501B4010E948F159B01ED
:1026C000AC01C301B2010E940E1626E73BE742ECC3
:1026D0005AE40E946F180E94EC166B017C01609313
:1026E000DB017093DC018093DD019093DE0128A172
:1026F00039A14AA15BA160E081E00E94600D2CA19C
:102700003DA14EA15FA161E082E00E94600D609159
:10271000000270910102072E000C880B990B0E9499
:102720001D174B015C016091020270910302072E9C
:10273000000C880B990B0E941D172AE037ED43E22D
:102740005CE30E946F189B01AC01C501B4010E94BB
:102750008F154B015C016091F0017091F101072E22
:10276000000C880B990B0E941D179B01AC01C50141
:10277000B4010E948E150E94E516AB01BC0184E0F5
:102780000E94470DB701A60185E00E94470D6091A8
:10279000040270910502072E000C880B990B0E9411
:1027A0001D176B017C018091060290910702BC010C
:1027B000990F880B990B0E941D172FE632E143E811
:1027C0005AE30E946F189B01AC01C701B6010E9439
:1027D0008F1526E53EE04DEE5FE30E946F180E94E4
:1027E000E516AB01BC012DC01092EC011092ED0179
:1027F0001092EE011092EF011092E8011092E9019F
:102800001092EA011092EB0120E030E0A90160E0B3
:1028100081E00E94600D20E030E0A90161E082E0EB
:102820000E94600D40E050E0BA0184E00E94470D34
:1028300040E050E0BA0185E00E94470D40E050E0E2
:10284000BA0183E00E94470DEACB0E9438026093F0
:102850002302709324028093250290932602809194
:10286000AC02882351F18091690290916A02DC01E7
:10287000ED91FC910280F381E02D40E06EE7099537
:102880008091690290916A02DC01ED91FC910280D5
:10289000F381E02D41E061E9099580916902909111
:1028A0006A02DC01ED91FC910280F381E02D41E0B0
:1028B00061E309951092AC025FC0F090AB02FF207B
:1028C00009F44CC0CF2C0F2C000CDD08C6010E946F
:1028D000971A892B31F0C6010E949E1AF82EE12C1E
:1028E00002C0EE24E3948091690290916A02DC01B7
:1028F000ED91FC910280F381E02D40E06EE70995B7
:102900008091690290916A02DC01ED91FC91028054
:10291000F381E02D41E062E0099580916902909198
:102920006A02DC01ED91FC910280F381E02DE1105F
:1029300002C062E201C063E241E009958091690250
:1029400090916A02DC01ED91FC910280F381E02D0F
:1029500041E06F2D09951092AB020EC080913D02AF
:1029600090913E02892B41F08091270291E0980FCF
:10297000909327020E94F80A0E94B10A6CCBB3948C
:10298000B092DD023BCB1092AF021092E00236CB48
:102990008AED92E028AF0E94650328AD2093DC0207
:1029A0001092DD02F092E00229CBCF93DF93E7E1B2
:1029B000F2E01382128288EE93E0A0E0B0E084831C
:1029C0009583A683B7838BE091E0918380838CEB22
:1029D00092E00E94680381EE92E00E946803CFEAD1
:1029E000D2E019821A821B821C821D821E821F82E3
:1029F000188619861A861B861C868CEB92E00E942C
:102A0000680319AA88EF91E00E946803E3E2F2E00C
:102A100010821182128213821482118E138E128EF2
:102A2000158E148E178E168E10A211A210926A02A5
:102A3000109269021092AB021092AC0286E780936A
:102A4000AD0282E38093AE0215828FEF9FEFDC012F
:102A50008093650290936602A0936702B093680228
:102A600080E2E5E4F2E0DF011D928A95E9F7DF916B
:102A7000CF9108958BE091E0909318028093170214
:102A800080916F008B7F80936F0080916F008F7DAE
:102A900080936F008091D4018093D5018091D30100
:102AA0008111FCCF80916F008D7F80936F0008951E
:102AB000FB01DC0102C005900D9241505040D8F757
:102AC0000895992788270895DB018F939F930E948B
:102AD0007415BF91AF91A29F800D911DA39F900D82
:102AE000B29F900D112408950E947F15A59F900D0F
:102AF000B49F900DA49F800D911D11240895A29F55
:102B0000B001B39FC001A39F700D811D1124911DC1
:102B1000B29F700D811D1124911D08955058BB273F
:102B2000AA270E94A6150C94E5170E94AC1738F04E
:102B30000E94B31720F039F49F3F19F426F40C9447
:102B400082170EF4E095E7FB0C947C17E92F0E94A6
:102B50000A1858F3BA17620773078407950720F01D
:102B600079F4A6F50C942C180EF4E0950B2EBA2FE0
:102B7000A02D0B01B90190010C01CA01A001112483
:102B8000FF27591B99F0593F50F4503E68F11A162F
:102B9000F040A22F232F342F4427585FF3CF4695C0
:102BA00037952795A795F0405395C9F77EF41F16E2
:102BB000BA0B620B730B840BBAF09150A1F0FF0FAC
:102BC000BB1F661F771F881FC2F70EC0BA0F621F98
:102BD000731F841F48F4879577956795B795F79588
:102BE0009E3F08F0B0CF9395880F08F09927EE0F1D
:102BF0009795879508950E94AC1760F080E891E062
:102C000009F49EEF0E94B31728F040E851E071F4F8
:102C10005EEF0CC00C9482170C942C18E92FE0780E
:102C20000E940A1840F3092E052AB1F32617370728
:102C30004807590738F00E2E07F8E02569F0E0251F
:102C4000E0640AC0EF6307F8009407FADB01B901FA
:102C50009D01DC01CA01AD01EF930E948A160E941A
:102C6000E5170E943E165F91552339F02BED3FE0AA
:102C700049E450FD49EC0C948F150895DF93DD274E
:102C8000B92FBF7740E85FE31616170648075B07C2
:102C900018F4D92F0E9433189F938F937F936F93CB
:102CA0000E942A19EEE9F0E00E9485170E94E517BC
:102CB0002F913F914F915F910E948218DD2351F037
:102CC0009058A2EA2AED3FE049EC5FE3D0785D2717
:102CD0000E94A615DF910C94E5170E94581708F47E
:102CE00081E008950E94BC17E3950C94F6170E94AA
:102CF000B31758F00E94AC1740F029F45F3F29F059
:102D00000C947C1751110C942D180C9482170E946E
:102D10000A1868F39923B1F3552391F3951B550BCA
:102D2000BB27AA2762177307840738F09F5F5F4F9E
:102D3000220F331F441FAA1FA9F335D00E2E3AF0DD
:102D4000E0E832D091505040E695001CCAF72BD0F5
:102D5000FE2F29D0660F771F881FBB1F2617370746
:102D60004807AB07B0E809F0BB0B802DBF01FF2778
:102D700093585F4F3AF09E3F510578F00C947C17C2
:102D80000C942D185F3FE4F3983ED4F38695779525
:102D90006795B795F7959F5FC9F7880F911D969531
:102DA000879597F90895E1E0660F771F881FBB1F8D
:102DB000621773078407BA0720F0621B730B840B3A
:102DC000BA0BEE1F88F7E09508950E94EC16689400
:102DD000B1110C942D1808950E94121888F09F5775
:102DE00098F0B92F9927B751B0F0E1F0660F771F2F
:102DF000881F991F1AF0BA95C9F714C0B13091F025
:102E00000E942C18B1E008950C942C18672F782F8D
:102E10008827B85F39F0B93FCCF3869577956795E9
:102E2000B395D9F73EF490958095709561957F4F55
:102E30008F4F9F4F0895E89409C097FB3EF49095FB
:102E40008095709561957F4F8F4F9F4F9923A9F083
:102E5000F92F96E9BB279395F69587957795679512
:102E6000B795F111F8CFFAF4BB0F11F460FF1BC056
:102E70006F5F7F4F8F4F9F4F16C0882311F096E9E9
:102E800011C0772321F09EE8872F762F05C0662397
:102E900071F096E8862F70E060E02AF09A95660F50
:102EA000771F881FDAF7880F9695879597F9089509
:102EB000990F0008550FAA0BE0E8FEEF161617064B
:102EC000E807F907C0F012161306E407F50798F0B3
:102ED000621B730B840B950B39F40A2661F0232BCC
:102EE000242B252B21F408950A2609F4A140A69548
:102EF0008FEF811D811D089597F99F6780E870E02D
:102F000060E008959FEF80EC0895DF93CF931F93C7
:102F10000F93FF92EF92DF927B018C01689406C0C1
:102F2000DA2EEF010E948218FE01E894A591259106
:102F3000359145915591A6F3EF010E94A615FE012A
:102F40009701A801DA9469F7DF90EF90FF900F9155
:102F50001F91CF91DF91089500240A941616170649
:102F600018060906089500240A941216130614067A
:102F7000050608950C9482170E941218D8F3E8945D
:102F8000E0E0BB279F57F0F02AED3FE049EC06C098
:102F9000EE0FBB0F661F771F881F28F0B23A62073B
:102FA0007307840728F0B25A620B730B840BE39506
:102FB0009A9572F7803830F49A95BB0F661F771F89
:102FC000881FD2F790480C943419092E0394000CF2
:102FD00011F4882352F0BB0F40F4BF2B11F460FFB3
:102FE00004C06F5F7F4F8F4F9F4F0895EF93E0FFB7
:102FF00007C0A2EA2AED3FE049EC5FEB0E94A6156C
:103000000E94E5170F90039401FC9058EBECF0E060
:103010000C94471957FD9058440F551F59F05F3FC6
:1030200071F04795880F97FB991F61F09F3F79F0EA
:1030300087950895121613061406551FF2CF46956C
:10304000F1DF08C0161617061806991FF1CF8695EE
:103050007105610508940895E894BB2766277727D2
:10306000CB0197F908959B01AC0160E070E080E826
:103070009FE30C942E19FA01DC01AA0FBB1F9B01E0
:10308000AC01BF5728F4222733274427507820C0AB
:10309000B75190F4AB2F0024469537952795011C26
:1030A000A395D2F3002071F0220F331F441FB39574
:1030B000DAF30ED00C948E1561307105A0E88A0702
:1030C000B94630F49B01AC016627772788279078B2
:1030D000309621F0208331834283538308950E94E8
:1030E00082180C94E5170E94AC1738F00E94B317B1
:1030F00020F0952311F00C947C170C948217112466
:103100000C942D180E940A1870F3959FC1F3950F27
:1031100050E0551F629FF001729FBB27F00DB11D5B
:10312000639FAA27F00DB11DAA1F649F6627B00DEB
:10313000A11D661F829F2227B00DA11D621F739FD4
:10314000B00DA11D621F839FA00D611D221F749FE2
:103150003327A00D611D231F849F600D211D822F29
:10316000762F6A2F11249F5750409AF0F1F0882350
:103170004AF0EE0FFF1FBB1F661F771F881F91507D
:103180005040A9F79E3F510580F00C947C170C9499
:103190002D185F3FE4F3983ED4F3869577956795B5
:1031A000B795F795E7959F5FC1F7FE2B880F911DA7
:1031B0009695879597F908959F930E94BC170F9055
:1031C00007FCEE5F0C94F61719F416F40C948217B2
:1031D0000C9432190E941218B8F39923C9F3B6F36C
:1031E0009F57550B87FF0E9440190024A0E640EA34
:1031F000900180585695979528F4805C660F771F4C
:10320000881F20F026173707480730F4621B730B1E
:10321000840B202931294A2BA69517940794202541
:1032200031254A2758F7660F771F881F20F0261789
:103230003707480730F4620B730B840B200D311DE8
:10324000411DA09581F7B901842F9158880F96955B
:10325000879508959B01AC010C946F180E94871606
:103260000C94E5179F3F31F0915020F487957795A6
:103270006795B795880F911D9695879597F908954D
:1032800091505040660F771F881FD2F708959F9383
:103290008F937F936F93FF93EF939B01AC010E94F9
:1032A0006F18EF91FF910E9485172F913F914F91D9
:1032B0005F910C946F18EE0FFF1F0590F491E02DB5
:1032C0000994CF93DF938230910510F482E090E06F
:1032D000E0910503F091060320E030E0C0E0D0E08B
:1032E000309711F14081518148175907C0F04817B4
:1032F000590761F482819381209719F09B838A8317
:103300002BC0909306038093050326C02115310539
:1033100019F04217530718F49A01BE01DF01EF01BB
:103320000280F381E02DDCCF2115310509F1281B46
:10333000390B2430310590F412968D919C9113979E
:103340006115710521F0FB019383828304C0909382
:10335000060380930503FD01329644C0FD01E20F90
:10336000F31F81939193225031092D933C933AC0DE
:103370002091030330910403232B41F42091030196
:103380003091040130930403209303032091010141
:10339000309102012115310541F42DB73EB740911E
:1033A000050150910601241B350BE0910303F091B8
:1033B0000403E217F307A0F42E1B3F0B281739076D
:1033C00078F0AC014E5F5F4F2417350748F04E0F81
:1033D0005F1F50930403409303038193919302C0B2
:1033E000E0E0F0E0CF01DF91CF9108950F931F93BC
:1033F000CF93DF93009709F48CC0FC0132971382BE
:10340000128200910503109106030115110581F444
:1034100020813181820F931F209103033091040397
:103420002817390779F5F0930403E093030371C07B
:10343000D80140E050E0AE17BF0750F412962D912E
:103440003C911397AD012115310509F1D901F3CF55
:103450009D01DA013383228360817181860F971F7A
:103460008217930769F4EC0128813981260F371FF1
:103470002E5F3F4F318320838A819B819383828398
:10348000452B29F4F0930603E093050342C01396FD
:10349000FC93EE931297ED01499159919E01240FEF
:1034A000351FE217F30771F480819181840F951F16
:1034B000029611969C938E938281938113969C938E
:1034C0008E931297E0E0F0E0D80112968D919C91D6
:1034D0001397009719F0F8018C01F6CF8D919C910C
:1034E00098012E5F3F4F820F931F2091030330916D
:1034F00004032817390769F4309729F4109206035A
:103500001092050302C013821282109304030093E9
:103510000303DF91CF911F910F91089581E090E017
:10352000F8940C94C51A85FD0C9461158062911174
:103530000C94611581568A51D8F708959111089518
:1035400081568A5108F4805285580895FB01DC01A8
:1035500002C001900D9241505040D8F70895DC010F
:1035600001C06D9341505040E0F70895FB01DC012C
:103570004150504048F001900D920020C9F701C021
:103580001D9241505040E0F7089511E0C7E4D1E0AA
:1035900004C0FE010E945B192196C834D107C9F707
:0435A000F894FFCFCD
:1035A400FF000007038000000000005F0372018E2B
:1035B40003B302440266025302000000009103B800
:0C35C40002F502340333034750530000AB
:00000001FF
