:100000000C9448010C9470010C9470010C947001D4
:100010000C9470010C9470010C9470010C9470019C
:100020000C9470010C9470010C94F8090C94A20AC1
:100030000C94B1090C9470010C9470010C94700133
:100040000C9467090C9470010C949F0B0C94DB0BBF
:100050000C94360C0C9470010C9470010C9470018B
:100060000C9470010C9470015802600267026D02DA
:1000700074027A02950281028A0236043904B703B7
:10008000DA034F04EE03F603E40415043604EE032A
:100090003904B703DA034F047A048D04A204084A32
:1000A000D73B3BCE016E84BCBFFDC12F3D6C74318C
:1000B0009ABD56833DDA3D00C77F11BED9E4BB4CE3
:1000C0003E916BAAAABE000000803F05A84CCDB2AD
:1000D000D44EB93836A9020C50B9918688083CA68E
:1000E000AAAA2ABE000000803F005A44410056548C
:1000F0004700524D4300475356004753540047535F
:100100004100474C4C0047474100000000002500DB
:1001100028002B0004040404040404040202020264
:1001200002020303030303030102040810204080BA
:100130000102040810200102040810200000000839
:10014000000201000003040700000000000000009E
:10015000014C617469747564650000000000000062
:100160000000000000200000000000000900024C18
:100170006F6E676974756465000000000000000020
:10018000000000200000000000000900035370651B
:100190006564000000000000000000000000000096
:1001A000006B6D2F68000000010004416C746974DD
:1001B0007564650000000000000000000000006D94
:1001C00000000000000001000544697374616E6363
:1001D000650000000000000000000000006D00004D
:1001E000000000000100000000000000000000000E
:1001F00000000000000000000000000000000000FF
:10020000000000000608060064000100010006244A
:100210002400FFFF07030000000010270000050076
:10022000FA00FA0064002C01000000000000000049
:1002300000000000000006010800F00800000000B7
:10024000000106010800F0050000000000010601A1
:100250000800F00200000000000106010800F003A1
:1002600000000000000106010800F001000000008D
:10027000000106010201FE00FA00F600F200EE00A5
:10028000EA0000000000240027002A004015221583
:1002900011241FBECFEFD8E0DEBFCDBF23E0AAE41C
:1002A000B1E001C01D92A732B207E1F711E0A0E072
:1002B000B1E0EEE3F6E302C005900D92AA34B10777
:1002C000D9F711E0C7E4D1E004C02197FE010E94F4
:1002D000A819C634D107C9F70E94CA0D0C94121B85
:1002E0000C940000CF92DF92EF92FF920F931F9336
:1002F000CF93DF936C017A018B01C0E0D0E0CE1583
:10030000DF0589F0D8016D918D01D601ED91FC9149
:100310000190F081E02DC6010995892B11F47E0131
:1003200002C02196ECCFC701DF91CF911F910F91B1
:10033000FF90EF90DF90CF9008950E94DB1AFC01B0
:1003400080915802882321F06C3209F04CC018C00B
:10035000118210821382128280915A0282608093ED
:100360005A021092590281E06D3209F080E09091BA
:100370005A0280FB90F990935A02882329F366C0B1
:1003800080915902811103C081E0809359028281DA
:100390009381892B99F480915A0280FF22C0828137
:1003A0009381919581959109938382838081918135
:1003B0009195819591099183808313C02AE0809162
:1003C000590291E0980F90935902481720F36281E7
:1003D0007381269FC001279F900D112493838283F0
:1003E000EECF81E008956E3221F481E080935902CE
:1003F0002DC080915902811112C0208131814AE0C3
:10040000429FC001439F900D1124062E000C770BD4
:1004100060537109680F791F7183608317C091E081
:10042000980F90935902481788F0228133814AE04F
:10043000429FC001439F900D1124062E000C770BA4
:1004400060537109680F791F7383628380E0089598
:10045000813311F0813411F483E014C0803321F032
:100460008E3411F0863519F4109254020DC0823387
:1004700011F0843411F484E005C0863311F0853422
:1004800041F481E080935402809155028160809311
:10049000550280E00895E09158024E2F50E0493017
:1004A000510508F042C0FA01EC5CFF4F0C94A8190A
:1004B0008C32D9F1880F8056982F990F990F03C06D
:1004C00090914E029053890F80934E022EC0880F58
:1004D0008056982F990F990F03C090914D02905319
:1004E000890F80934D0221C0880F8056982F990F55
:1004F000990F03C090914C029053890F80934C0246
:1005000014C0880F8056982F990F990F890F8093E8
:1005100053020BC0909153029053890F8093530262
:100520008091550284608093550281E00895CF92B6
:10053000DF92EF92FF921F93CF93DF93EC01162F80
:100540008091580281110BC0188219821A821B8275
:100550001092590280915A02826080935A021E3290
:1005600091F01C3209F07FC080915902882359F024
:1005700080915902843099F5288139814A815B81C3
:10058000A4E6B0E046C081E0809359022981822F21
:1005900082958F702F703AE0839F200D11248A81FD
:1005A00081112C598881982F92959F708F703AE015
:1005B000939F800D112490E03CE3239F800D911DBB
:1005C0001124092E000CAA0BBB0B88839983AA83E4
:1005D000BB831E3209F4A9C01C3251F244C08530DD
:1005E00039F4288139814A815B81AAE0B0E011C0E9
:1005F0008630F1F008F09BC0288139814A815B8107
:10060000833019F4A8EEB3E004C0823029F4A0E1ED
:10061000B7E20E94C11508C0813051F460EA76E863
:1006200081E090E00E94B115688379838A839B837F
:10063000C880D980EA80FB80D701C601880F991F46
:10064000AA1FBB1FBC01CD016F5F7F4F8F4F9F4F14
:100650000E943B0BC60ED71EE81EF91EC882D98227
:10066000EA82FB8264C080915902811118C0812FF7
:10067000110F990BC097092E000CAA0BBB0B4881D8
:1006800059816A817B8134E0440F551F661F771FB3
:100690003A95D1F7842B952BA62BB72B42C08F5FB1
:1006A000809359028730C0F4288139814A815B8167
:1006B000AAE0B0E00E94C115212F110F330B205387
:1006C00031096901330FEE08FF08DC01CB018C0D05
:1006D0009D1DAE1DBF1D25C0873039F5C880D9804E
:1006E000EA80FB80D701C601880F991FAA1FBB1F94
:1006F000BC01CD016F5F7F4F8F4F9F4F0E943B0B1F
:10070000DC01CB018C0D9D1DAE1DBF1D193324F0E6
:100710000296A11DB11D05C014331CF00196A11D48
:10072000B11D88839983AA83BB8380E001C081E0E7
:10073000DF91CF911F91FF90EF90DF90CF900895C0
:10074000682F80912A02813021F0863009F480C020
:100750003BC1E09157028E2F90E0FC013197E930C8
:10076000F10508F031C1E35CFF4F0C94A8198091AA
:100770005A0282FF29C180915802811125C1633537
:1007800009F022C18091370290913802A09139027C
:10079000B0913A02B095A095909581959F4FAF4F3B
:1007A000BF4F8093370290933802A0933902B093E1
:1007B0003A020AC16C3249F480915802811105C095
:1007C00080915A028B7F80935A0280915A0282FF55
:1007D000FBC08BE392E00E949702F6C08091580222
:1007E0008111F2C0862F0E942802EEC080915A0229
:1007F0008E7F80935A0281E06C3209F080E0909104
:100800005802911104C08111DFC060530BC08111E7
:10081000D6C080914B02880F982F990F990F890F9E
:100820008053680F60934B02CAC042E08FE392E0AE
:100830000E949F01882309F4C7C021E090915802CB
:10084000911101C020E09091550220FB94F977C0EE
:10085000E09157028E2F90E0FC013197E930F105CD
:1008600008F0B2C0EA5BFF4F0C94A819862F0C94D5
:100870004B0280915802882339F080915A0282FFFE
:10088000A3C087E392E0A7CF91E06C3209F490E037
:1008900080915A0290FB82F980935A02EECF909198
:1008A0005A0292FB882780F992FF8EC090915802DD
:1008B00091118AC0909155029860909355026735C6
:1008C00009F082C040913B0250913C0260913D0290
:1008D00070913E0270956095509541955F4F6F4FB6
:1008E0007F4F40933B0250933C0260933D027093D4
:1008F0003E02089543E083E492E00E949F01882332
:1009000009F462C021E090915802911101C020E0E9
:100910009091550220FB95F912C042E087E492E0E5
:100920000E949F01882309F44FC021E09091580252
:10093000911101C020E09091550220FB96F990930F
:100940005502089580915802823019F140F48823AD
:10095000A9F08130C9F580915002805316C08430CF
:1009600029F1E8F0853081F5809152028053680FBB
:100970006093520280915502826024C06C3221F152
:10098000660F6056862F880F880F680F609350029D
:100990001BC0660F6056862F880F880F03C080919A
:1009A00051028053680F609351020EC0660F60566B
:1009B000862F880F880F680F6093520205C08091C0
:1009C000550280688093550281E00895CF93DF93AC
:1009D0008091E4019091E501DC01ED91FC910280B0
:1009E000F381E02D40E06EEF0995809106028823A7
:1009F00011F1C6E0D2E08091E4019091E5016991A6
:100A0000DC01ED91FC910280F381E02D41E009953C
:100A1000B2E0C632DB0779F78091E4019091E501FD
:100A2000DC01ED91FC910280F381E02D40E06FEF5D
:100A3000DF91CF910994C0E2D0E08091E4019091E0
:100A4000E501DC01ED91FC910280F381E02D41E0B4
:100A500060E00995219789F7DFCF2F923F924F925F
:100A60005F926F927F929F92AF92BF92CF92DF92EE
:100A7000EF92FF920F931F93CF93DF93CDB7DEB723
:100A8000A1970FB6F894DEBF0FBECDBF811118C07D
:100A90001092E8011092EE011091B701812F880F9A
:100AA000880F880F8093EF01412F50E063EA71E0D7
:100AB00080EF91E00E94F31ABAE09B2E910EA8C13C
:100AC000282F269530E04091BC015091BD0142177E
:100AD00053070CF473C080FD71C000E010E0CC241B
:100AE000CA94DC2C76018091BC019091BD0108175D
:100AF00019070CF061C02091BF01622F70E01B82CA
:100B0000CC82DD82EE82FF821D8E1E8E1F8E18A289
:100B100019A2FB01A3E0F595E795AA95E1F7E0524C
:100B2000FE4F808190E0277002C0959587952A95A9
:100B3000E2F7817099278887892B31F04EE951E0DF
:100B4000CE0101960E94630C8091BF018F5F80935C
:100B5000BF0190E02091BC013091BD018217930745
:100B600014F01092BF018885882319F11092E801D2
:100B70008B818093EE018D8D28E0829FC00111242E
:100B80009E8D892B8093EF0180E02AE0280FE9E019
:100B9000F0E0EC0FFD1FE80FF11D9081992339F073
:100BA0008F5FE22FF0E0EA51FE4F9083EECF922E5E
:100BB0002FC10F5F1F4F97CF912C2AC180E48093E4
:100BC000E80100E010E058E0952ECC24CA94DC2C1B
:100BD00076017AE1672E712C2091BE01622F70E0C0
:100BE0001B82CC82DD82EE82FF821D8E1E8E1F8EC6
:100BF00018A219A2FB0143E0F595E7954A95E1F7A4
:100C0000E052FE4F808190E0277002C09595879555
:100C10002A95E2F7817099278887892B31F04EE970
:100C200051E0CE0101960E94630C8091BE018F5F5E
:100C30008093BE0190E0A090BC01B090BD018A15E8
:100C40009B0514F01092BE018885882309F4D0C05A
:100C50008C819D81AE81BF818F3F5FEF9507A50796
:100C6000B50709F4C5C03B81692D70E04F8D51E097
:100C7000590D303168F06A517E4F242F2F70FB01DF
:100C8000208322E0290DE52FF0E0EA51FE4F0BC052
:100C9000252F6A517E4F50E1359FF0011124342FEA
:100CA0003F703E2BFB01308369A170E030E044309F
:100CB000B9F128F4442369F04130D9F095C04830A7
:100CC00009F466C0493009F480C0453009F08CC091
:100CD00042C0482F4F71B7FD02C080E001C080E8DC
:100CE000F901EA51FE4F842B98A1892B808381E082
:100CF0007CC0F901EA51FE4F8083A9014F5F5F4F2D
:100D0000E92FEF71B7FD02C080E001C080E8DA0191
:100D1000AA51BE4F8E2B98A1892B8C9382E065C07F
:100D2000A90142565E4FFA01E85BFF4F808331967E
:100D30009083A9014E5F5F4FEA2FEF71B7FD02C0AC
:100D400080E001C080E8DA01AA51BE4F8E2B98A145
:100D5000892B8C931BC0A90142565E4FFA01E85BB8
:100D6000FF4F808331969083A9014E5F5F4F1D0135
:100D7000552437FC5094452CB7FD02C080E001C0DB
:100D800080E8FA01EA51FE4F282A208283E02DC034
:100D9000A90142565E4FFA01E85BFF4F808331960E
:100DA00090833196A083A9014D5F5F4FEB2FEF71C8
:100DB000B7FD02C080E001C080E8DA01AA51BE4F51
:100DC0008E2B98A1892B8C930DC0A90142565E4FA2
:100DD000FA01E85BFF4F8083319690833196A083C0
:100DE0003196B08384E001C080E0982E920E02C05C
:100DF00060E070E00F5F1F4F0A151B054CF4892D52
:100E000090E09301261B370B821793070CF4E4CE76
:100E10008EE78093E6018FE28093E7018091E801FD
:100E20009EEF990D892B8093E80189E08093E90179
:100E300084EA8093EA01809128028093EB018091FB
:100E400029028093EC011092ED01292D30E0E8EEAB
:100E5000F1E080E092E09E1B57E0492F4E0F4915CC
:100E600060F44191842748E087FF03C0880F8527FD
:100E700001C0880F4150C1F7F0CFF901EA51FE4F90
:100E800080838091E4019091E501DC01ED91FC917A
:100E90000280F381E02D40E06EE7099511E09116A4
:100EA00098F08091E4019091E501DC01ED91FC91D5
:100EB000A12FB0E0AA51BE4F0280F381E02D41E0A6
:100EC0006C9109951F5FEBCFA1960FB6F894DEBF2A
:100ED0000FBECDBFDF91CF911F910F91FF90EF908B
:100EE000DF90CF90BF90AF909F907F906F905F907A
:100EF0004F903F902F9008952091BA013091BB01FF
:100F00002115310589F0803278F4E82FF0E0E256BF
:100F1000FE4F82A1F90194E0899FE00DF11D11249B
:100F2000408351836283738308953FB7F89480911F
:100F30001F0390912003A0912103B091220326B5B5
:100F4000A89B05C02F3F19F00196A11DB11D3FBF01
:100F5000BA2FA92F982F8827820F911DA11DB11D8F
:100F6000BC01CD0143E0660F771F881F991F4A958A
:100F7000D1F7089550914E0140914D01852F90E099
:100F8000242F30E0541710F4805B9F4F821B930B8B
:100F9000089580914E01E0914D018E1751F0EF5F61
:100FA000E03508F0E0E0F0E0E653FD4F808190E0AE
:100FB00008958FEF9FEF089580914E0190914D011C
:100FC000891769F09F5F903508F090E0E92FF0E015
:100FD000E653FD4F808190934D0190E008958FEF8F
:100FE0009FEF089590914B019F5F943408F090E03B
:100FF00020914A012917E1F32FB7F89430914C0161
:10100000332341F0E92FF0E0E058FD4F80839093C7
:101010004B011DC091E090934C018093C50210924A
:10102000C40282E086BB80916F00826080936F0073
:10103000809180008F73806880938000809184000D
:1010400090918500409690938900809388002FBFEF
:10105000089580914C018111FCCF08951F93CF9387
:10106000DF93F894EC01CA57DF4F2881203400F554
:10107000DC01AE57BF4F1C9111965C91119770E047
:10108000411103C020E030E002C020E031E0622BDB
:10109000732BE12FF52F71836083329628812F5FA8
:1010A0002883EA17FB0710F0FC013296ED93FC93BE
:1010B000FC01E057FF4F8081811108C081E08083EF
:1010C0008091C1008F7688628093C1007894DF910F
:1010D000CF911F910895FC01E157FF4F20812223FA
:1010E00001F1F894A0917E02B0917F02A357BF4F07
:1010F0000D90BC91A02D4C912081215020833297DE
:10110000208131812F5F3F4FBC0165577F4F2617EC
:10111000370718F09C0129573F4F3183208378947B
:1011200001C040E0842F089508950895862F0E94FD
:10113000F20781E090E00895089580E090E008953E
:10114000CF93DF9390E0FC01E85DFE4F2491FC011A
:10115000EC5EFE4F8491882361F190E0880F991F27
:10116000FC01EE57FD4FC591D491FC01E65FFE4FA7
:10117000A591B491611109C09FB7F8948881209519
:1011800082238883EC912E230BC0623061F49FB7D9
:10119000F8943881822F809583238883EC912E2BBD
:1011A0002C939FBF06C08FB7F894E8812E2B28831D
:1011B0008FBFDF91CF9108951092C0008CE0809393
:1011C000C10086E38093C2001092C50082E3809341
:1011D000C40062E080E00E94A00862E081E00C941C
:1011E000A008CF93DF93EC010E94DC08FE01329649
:1011F00080E8DF011D928A95E9F7DE01AE57BF4F07
:101200001196FC93EE9312961196FC93EE93EC5785
:10121000FF4F10823196108211821282138217962C
:101220001196FC93EE931296ED93FC9338961082F0
:1012300031961082D0937F02C0937E02DF91CF91CE
:1012400008958F929F92AF92BF92CF92DF92EF92CA
:10125000FF926B017C010E9495074B015C01C11458
:10126000D104E104F104F1F00E949507DC01CB0107
:1012700088199909AA09BB09883E9340A105B105BF
:1012800070F321E0C21AD108E108F10888EE880E57
:1012900083E0981EA11CB11CC114D104E104F10427
:1012A00019F7DDCFFF90EF90DF90CF90BF90AF9018
:1012B0009F908F9008952FB7F89460911B037091C1
:1012C0001C0380911D0390911E032FBF08951F9250
:1012D0000F920FB60F9211242F933F938F939F93EA
:1012E000AF93BF9380911B0390911C03A0911D03AA
:1012F000B0911E0330911A0326E0230F2D3720F4FE
:101300000296A11DB11D05C029E8230F0396A11D5A
:10131000B11D20931A0380931B0390931C03A09389
:101320001D03B0931E0380911F0390912003A09191
:101330002103B09122030196A11DB11D80931F03CB
:1013400090932003A0932103B0932203BF91AF9108
:101350009F918F913F912F910F900FBE0F901F90F3
:1013600018951F920F920FB60F9211242F938F93FF
:101370009F93EF93FF9380916F008B7F80936F001B
:10138000809181008F7B8093810080914F0120911B
:10139000C90220589091C802893020F49695922B6A
:1013A0008F5FFACF9093C80280914E018F5F803596
:1013B00008F080E020914D01821739F0E82FF0E02D
:1013C000E653FD4F908380934E0110924F01809120
:1013D00081008F7B809381001092C902FF91EF9171
:1013E0009F918F912F910F900FBE0F901F90189586
:1013F0001F920F920FB60F9211242F933F934F938A
:101400005F936F937F938F939F93AF93BF93EF936C
:10141000FF9380918600909187004091C9022091AE
:101420008100442331F02F7B209381001092C90268
:1014300006C020642093810020E82093C9023091E7
:101440004F01311125C041116CC0209150013091E4
:101450005101280F391F30938B0020938A0024E01C
:1014600026BB20916F00246020936F0020915201D1
:1014700030915301820F931F36952795820F931F4A
:101480009093C7028093C60281E080934F0149C0C8
:101490004091C6025091C702609152017091530170
:1014A000DB01A095B0952091C802E091C902841B90
:1014B000950BA817B90768F126952E2B460F571FD5
:1014C0003F5F861B970B3930A0F32093C8028091B1
:1014D0006F008B7F80936F0080914E018F5F80350E
:1014E00008F080E090914D01891749F0E82FF0E075
:1014F0009091C802E653FD4F908380934E018091F6
:1015000081008F7B809381001092C90210924F015D
:1015100008C02093C8025093C7024093C60230937C
:101520004F01FF91EF91BF91AF919F918F917F916B
:101530006F915F914F913F912F910F900FBE0F9040
:101540001F9018951F920F920FB60F9211242F9390
:101550003F934F935F936F937F938F939F93EF93FB
:10156000FF9380914C016091C502209188003091D9
:10157000890040915201509153019091C4028A30E8
:10158000F8F4240F351F893019F0762F717001C0DF
:1015900071E066958F5F791791F3909180007723C2
:1015A00011F0906C02C09F7390689093800030930C
:1015B0008900209388007093C4026093C5024AC0DA
:1015C00090914B01E0914A019E1319C08A3051F469
:1015D0008BE080934C01240F351F309389002093BA
:1015E00088003AC010924C01809180008F738093E4
:1015F000800080916F008D7F80936F002DC0EF5F22
:10160000E43408F0E0E0E0934A01F0E0E058FD4FF8
:1016100090819093C5021092C402909180009F73B4
:101620009068909380008A3059F480915201909193
:101630005301280F391F309389002093880009C077
:1016400080918400909185004096909389008093CA
:10165000880081E080934C01FF91EF919F918F91E1
:101660007F916F915F914F913F912F910F900FBE9E
:101670000F901F9018958F929F92AF92BF92CF922A
:10168000DF92EF92FF924B015C016B017C0184E0E1
:10169000F694E794D794C7948A95D1F7D501C401FD
:1016A00022E0B695A795979587952A95D1F7C80E0C
:1016B000D91EEA1EFB1ED701C60134E0B695A795D8
:1016C000979587953A95D1F7C80ED91EEA1EFB1E4D
:1016D000BB27AF2D9E2D8D2DC80ED91EEA1EFB1ED9
:1016E000C701AA27BB27C80ED91EEA1EFB1EA3E00E
:1016F000B0E0A70196010E94C115A5019401261B27
:10170000370B480B590BABE0B0E00E94C115DC0170
:10171000CB0165E0B695A795979587956A95D1F722
:10172000BC01CD016C0D7D1D8E1D9F1DFF90EF90A6
:10173000DF90CF90BF90AF909F908F9008951F92B1
:101740000F920FB60F9211242F933F938F939F9375
:10175000AF93BF93EF93FF938091C600803FF1F06A
:10176000982F9F70D9F420917E0230917F02F90169
:10177000E557FF4FA081B1818C93D901A157BF4F8D
:101780008C918F5F8C938081918101968E179F073A
:1017900018F0C90189579F4F91838083FF91EF9182
:1017A000BF91AF919F918F913F912F910F900FBE5D
:1017B0000F901F9018951F920F920FB60F92112441
:1017C0002F933F934F935F938F939F93EF93FF9349
:1017D00080917E0290917F02FC01EA57FF4F2081A9
:1017E000222351F132970190F081E02D2081318147
:1017F0008091C10030FF02C0816001C08E7F809364
:10180000C1002093C60020917E0230917F02F90131
:10181000EA57FF4F80818150808332978081918188
:101820000296A9014E575F4F8417950710F0C90122
:101830000296918380830DC08091C1008F7D80646A
:101840008093C100E0917E02F0917F02E057FF4F4C
:101850001082FF91EF919F918F915F914F913F91F6
:101860002F910F900FBE0F901F9018951F920F92FF
:101870000FB60F9211242F933F938F939F93EF9363
:10188000FF93E1ECF0E08081877B80698083809129
:101890007E0290917F029C0129573F4FFC01E55742
:1018A000FF4F31832083329631832083329610821A
:1018B000FF91EF919F918F913F912F910F900FBECC
:1018C0000F901F901895CF92DF92EF92FF920F9397
:1018D0001F93CF93DF93CDB7DEB76E970FB6F89413
:1018E000DEBF0FBECDBF8C017B016A012EE1269FBA
:1018F000C001279F900D1124DA015A966D917C91B9
:101900005B97680F791F4EE150E0CE0101960E946F
:10191000A5158D8DF801868F89818283EE0CFF1CC1
:10192000EE0CFF1CD6015C96ED91FC915D97EE0DDF
:10193000FF1D80819181A281B381F801838394830B
:10194000A583B683A801485F5F4FFE013296DA0196
:1019500090E08191811106C0392FD8015C969C934B
:10196000232F0FC0933119F09F5F8D93F2CF33E196
:10197000F4CF8331910594F4FA01E80FF91F7083D5
:101980002F5F622F631BE1E0F0E0EC0FFD1FE60F1D
:10199000F11D7589822F90E07111EBCFF801658FF1
:1019A000FA01E80FF91F10828E8D813031F08230FC
:1019B00041F480E4F801878F04C080E2D8015F968B
:1019C0008C93D8015E968C91843091F030F488230A
:1019D00061F08130A1F483E00FC0883041F089309C
:1019E00051F0853061F484E007C082E001C085E0F9
:1019F000F80180A304C085E0D80190968C936E9680
:101A00000FB6F894DEBF0FBECDBFDF91CF911F910F
:101A10000F91FF90EF90DF90CF900895EF92FF929B
:101A20000F931F93CF93DF93EC018B0185EB0E9403
:101A3000F20782E60E94F2077E01E00EF11E00E04E
:101A400010E0CE15DF0541F0FE018491180F010F63
:101A50000E94F2072196F5CF812F0E94F207802F76
:101A6000DF91CF911F910F91FF90EF900C94F207AF
:101A7000FC0110820895FC011482158216821782DF
:101A800010821182128213821186108613861286AA
:101A90001586148617861686118A108A138A128A6A
:101AA000148A168A178A158A81E0818F828F138E95
:101AB00087E0808F148E158ECF014E960C94380DD2
:101AC0004F925F926F927F92AF92BF92CF92DF92CE
:101AD000EF92FF920F931F93CF93DF9300D000D02C
:101AE000CDB7DEB7082FA62E69017A01AE014F5F90
:101AF0005F4FC701B6010E9488182B013C01898104
:101B00009A81AB81BC81BC01CD019F770E943917BE
:101B1000B62E172F2AE939E949E15FE3C301B20183
:101B20000E94BC1820E030E543EC57E40E94BC184A
:101B30009F770E9439173B011170A11002C090E0FD
:101B400001C090E2192B20E030E0A901C701B601E5
:101B50000E94BA16881F8827881F8295880F880FD1
:101B6000807C712F782BA3016B2D802F0F900F900D
:101B70000F900F90DF91CF911F910F91FF90EF90F9
:101B8000DF90CF90BF90AF907F906F905F904F901D
:101B90000C947C07CF93DF93CDB7DEB7E8970FB6F1
:101BA000F894DEBF0FBECDBF789484B5826084BD4B
:101BB00084B5816084BD85B5826085BD85B5816051
:101BC00085BD80916E00816080936E0010928100CF
:101BD000809181008260809381008091810081608A
:101BE000809381008091800081608093800080914B
:101BF000B10084608093B1008091B00081608093D7
:101C0000B00080917A00846080937A0080917A009D
:101C1000826080937A0080917A008E7F80937A0030
:101C200080917A00806880937A001092C1001092AF
:101C30006F001092800081E88093810081E493E03E
:101C4000909353018093520189E19EE19093510159
:101C50008093500162E088E00E94A008E5E4F1E092
:101C60008491E1E3F1E09491EDE1F1E0E491EE2380
:101C7000B1F1882339F1833091F038F48130A9F043
:101C8000823001F584B58F7D12C0873091F08830A5
:101C9000A1F08430B9F4809180008F7D03C08091E1
:101CA00080008F77809380000DC084B58F7784BDCE
:101CB00009C08091B0008F7703C08091B0008F7D04
:101CC0008093B000F0E0EE0FFF1FE65FFE4FA5919E
:101CD000B4918FB7F894EC919E2B9C938FBF61E0E9
:101CE00089E00E94A00810924F0110924E011092BC
:101CF0004D0110924C0110924B0110924A0110E2DA
:101D000016BB10936F006CE070E086E692E00E94D4
:101D10000E0D6AEF70E080E090E00E9421096CE017
:101D200070E08AE592E00E940E0D6AEF70E080E0BC
:101D300090E00E9421096CE070E08EE492E00E9445
:101D40000E0D6AEF70E080E090E00E9421096CE0E7
:101D500070E082E492E00E940E0D6AEF70E080E095
:101D600090E00E9421096CE070E086E392E00E941E
:101D70000E0D6AEF70E080E090E00E94210968E2B9
:101D800070E08EE092E00E940E0D6AEF70E080E05D
:101D900090E00E9421096AE070E084E092E00E94F5
:101DA0000E0D6AEF70E080E090E00E94210981E072
:101DB0008093000186E78093280282E380932902C2
:101DC000F090B701FF2029F011E03324339401E0B3
:101DD00051C1E6EEF1E0DF01212F1D922A95E9F7CE
:101DE00040E250E060E270E086E092E00E94FC1A7F
:101DF00043E150E068E271E083EA91E00E94031B56
:101E000083E08093B7018091BC019091BD01892B43
:101E100099F580E591E09093B9018093B801E0ECE9
:101E2000F1E0DF011D921A95E9F700E010E0609102
:101E3000B8017091B901600F711F4EE150E0CE0101
:101E400001960E94A515E981EE23B1F0E03220F45D
:101E5000F0E0E256FE4FF2A28091BC019091BD01EC
:101E600001969093BD018093BC01025E1F4FF394D5
:101E7000003CB3E01B07D9F60091BC011091BD01F5
:101E8000013CEFE11E0730F4C801880F991F880F4D
:101E9000991F02C08FEF9FEF0E94AE19FC0120E056
:101EA00030E04FEF5FEFBA012017310739F041936F
:101EB0005193619371932F5F3F4FF6CF8093BA0197
:101EC0009093BB0181E990E00E94AE1921E9DC0109
:101ED0001D922A95E9F72CE031E0FC013183208343
:101EE0009093E5018093E4010E94F1081092A20111
:101EF0001092BF011092BE010E945B096B017C0130
:101F0000F0EDCF0EF7E0DF1EE11CF11C8091B8016F
:101F10009091B901892B61F10E945B096C157D05D7
:101F20008E059F0528F504E010E00E94E60466E9AE
:101F300070E080E090E00E94210901501109A9F7AA
:101F400000E010E08091BC019091BD0180179107E5
:101F5000ECF2802F880F0E942D050E94E60466E9AE
:101F600070E080E090E00E9421090F5F1F4FEACFF0
:101F70008091E4019091E501DC01ED91FC910480F8
:101F8000F581E02D09958111F3CF1ECFE09173010A
:101F9000F09174010284F385E02D83E791E00995C7
:101FA000982F409133025091340260913502709124
:101FB00036024F5F5F4F6F4F7F4F40933302509316
:101FC00034026093350270933602843209F059C0AE
:101FD00080915A0284FF03C08F7E80935A02109230
:101FE000560210922A0200935B02109258028091CE
:101FF0005A028D7F80935A02E0917301F09174012F
:102000000084F185E02D83E791E00995892B09F0A3
:10201000BDCF80917B028111C9C18091E401909173
:10202000E501DC01ED91FC910480F581E02D09953D
:10203000803B09F414C480910101811121C4C09036
:102040009E01D0909F01E090A001F090A101A6E92F
:10205000CA0ED11CE11CF11C0E945B096C157D05A8
:102060008E059F0508F03EC480E090E0892B21F0AA
:102070000E940000F3E02F2EE8E0EE2E82E0F82E22
:10208000BBCF20915B02223061F58A3219F4209295
:102090005B021EC080EE890F8F3508F0F1C0809181
:1020A0005602892780935602892F98AF0E94A00379
:1020B00098AD882309F4E4C09C3269F480915A02F7
:1020C0008D7F80935A02809157028F5F80935702D1
:1020D0001092580291CF809158028F5F80935802DE
:1020E0008BCF213009F055C080915602892780930B
:1020F00056029C3229F480912A02811196C490C420
:10210000B0905802B1E0BB1508F086C47EEFA72E50
:10211000AB0C80912A02882319F08150883008F096
:1021200080E0E82FF0E0EE0FFF1FEE58FD4F259105
:102130003491AA2DB0E0F901EA0FFB1FE4919E1340
:1021400004C08F5F80932A0267C49E170CF468C492
:102150008F5F883009F464C4E82FF0E0EE0FFF1FB2
:10216000EE58FD4F65917491A9016B01C21AD30A13
:10217000E42FE21BEA1510F09B01DDCFFA019490E9
:10218000F601E40FF51FE4914F5F5F4F9E1681F358
:10219000F3CF233009F079C090628FE9890F863040
:1021A00010F4975501C09053409158022091560267
:1021B000892F90E041110DC00093580230E044E0B7
:1021C000359527954A95E1F72817390709F414CF73
:1021D00044C02F7030E02817390709F03EC08091C5
:1021E0005A0281FF09C08D7F80935A024F5F40934E
:1021F00058028CE20E94A00380912B0290912C0245
:10220000A0912D02B0912E020196A11DB11D8093C7
:102210002B0290932C02A0932D02B0932E0291E0FA
:1022200020912A0280910001281390E080915A02A7
:1022300090FB84F980935A0210925B0220917B02FA
:10224000222341F1886080935A0210927C0280918F
:102250007B02815080937B021DC080912F02909160
:102260003002A0913102B09132020196A11DB11D40
:1022700080932F0290933002A0933102B0933202E8
:1022800085E592E00E94380DCBC32111B5CE1092A6
:102290002A02B2CE8091550280FF0CC030917A02A2
:1022A0002091540230FF04C030917902321710F4AB
:1022B0002093790281FF0CC0209150022093750277
:1022C00020915102209376022091520220937702AE
:1022D00082FF10C020914E022093730220914D0284
:1022E0002093720220914C0220937102209153029C
:1022F0002093780283FF09C0E7E3F2E0ACE5B2E0A7
:102300008E2D01900D928A95E1F78091550284FF00
:1023100010C040913F025091400260914102709183
:102320004202409364025093650260936602709388
:10233000670286FF10C040914702509148026091A9
:10234000490270914A0240936C0250936D0260936F
:102350006E0270936F0285FF10C04091430250914E
:102360004402609145027091460240936802509386
:10237000690260936A0270936B0287FF04C08091C8
:102380004B028093700220917A0280915502822B39
:1023900080937A02992309F42FCE10927D028091C6
:1023A0007B02811129CE30927B0268CECE0101964C
:1023B0000E943B0D80917B028823C1F08150809365
:1023C0007B0280917C022FE1289FC0011124FC0137
:1023D000E45AFD4FDE01119601900D922A95E1F726
:1023E000845A9D4F0E943B0D10927C028FE1FE01AA
:1023F0003196A4E5B1E001900D928A95E1F78091C4
:102400009D01811157C08091720183FF51C080915D
:102410009C0181110DC010939C010E945B09609387
:1024200098017093990180939A0190939B0142C007
:102430000E945B09C0909801D0909901E0909A01A8
:10244000F0909B01DC01CB018C199D09AE09BF09FD
:10245000893B9B40A105B10568F110939D016091F6
:102460005C0170915D01072E000C880B990B0E9496
:102470006A176B017C0180915E0190915F01BC0144
:10248000990F880B990B0E946A172AE037ED43E2F7
:102490005CE30E94BC189B01AC01C701B6010E941D
:1024A000DC150E943217709397016093960102C069
:1024B00010929D0180919D01882309F49FC1609134
:1024C00054017091550180915601909157010E94DD
:1024D0006A1725E93FEB46ED53E30E94BC1868A359
:1024E00079A38AA39BA36093920170939301809335
:1024F00094019093950160915801709159018091D8
:102500005A0190915B010E946A1725E93FEB46ED65
:1025100053E30E94BC186CA37DA38EA39FA360937A
:102520008E0170938F01809390019093910180911F
:102530008D0181111AC010938D0188A199A1AAA1C2
:10254000BBA18093890190938A01A0938B01B093E2
:102550008C018CA19DA1AEA1BFA180938501909318
:102560008601A0938701B093880120918501309165
:10257000860140918701509188016CA17DA18EA1B7
:102580009FA10E94DB1525E33AEF4EE85CE30E9431
:10259000BC186B017C010E9429196CAB7DAB8EAB22
:1025A0009FABC701B6010E94BF1668A779A78AA78B
:1025B0009BA725E33AEF4EE85CE368A179A18AA1E5
:1025C0009BA10E94BC186B017C0125E33AEF4EE809
:1025D0005CE36091890170918A0180918B019091F7
:1025E0008C010E94BC182B013C01C701B6010E945E
:1025F00029194B015C01C701B6010E94BF166CA7E7
:102600007DA78EA79FA7C301B2010E94291968ABBD
:1026100079AB8AAB9BABC301B2010E94BF166B01C1
:102620007C0128A939A94AA95BA96CA57DA58EA51D
:102630009FA50E94BC182B013C01A7019601C50172
:10264000B4010E94BC1828A539A54AA55BA50E9423
:10265000BC189B01AC01C301B2010E94DB159B01B8
:10266000AC010E94BC182B013C012CA93DA94EA92C
:102670005FA9C701B6010E94BC189B01AC010E9472
:10268000BC189B01AC01C301B2010E94DC150E9481
:1026900037192B013C0128A939A94AA95BA9C50111
:1026A000B4010E94BC184B015C01A70196016CA506
:1026B0007DA58EA59FA50E94BC1828A539A54AA571
:1026C0005BA50E94BC189B01AC01C501B4010E942E
:1026D000DC159B01AC01C301B2010E945B1626E729
:1026E0003BE742EC5AE40E94BC180E9439176B0188
:1026F0007C016093810170938201809383019093A8
:10270000840128A139A14AA15BA160E081E00E9477
:10271000600D2CA13DA14EA15FA161E082E00E946D
:10272000600D60915C0170915D01072E000C880BBB
:10273000990B0E946A174B015C0160915E017091D8
:102740005F01072E000C880B990B0E946A172AE084
:1027500037ED43E25CE30E94BC189B01AC01C5016C
:10276000B4010E94DC154B015C01609196017091EF
:102770009701072E000C880B990B0E946A179B018A
:10278000AC01C501B4010E94DB150E943217AB01F8
:10279000BC0184E00E947C07B701A60185E00E948D
:1027A0007C076091600170916101072E000C880B1D
:1027B000990B0E946A176B017C01809162019091D4
:1027C0006301BC01990F880B990B0E946A172FE6D1
:1027D00032E143E85AE30E94BC189B01AC01C701F7
:1027E000B6010E94DC1526E53EE04DEE5FE30E9457
:1027F000BC180E943217AB01BC012DC0109292018F
:1028000010929301109294011092950110928E01F2
:1028100010928F01109290011092910120E030E00F
:10282000A90160E081E00E94600D20E030E0A90194
:1028300061E082E00E94600D40E050E0BA0184E077
:102840000E947C0740E050E0BA0185E00E947C07CE
:1028500040E050E0BA0183E00E947C07DECB80912B
:102860007F0190918001019709F0E5CB10928001E2
:1028700010927F0110930101E0E0F0E00995DBCBBD
:1028800080917F0190918001892B09F0D8CBACE237
:10289000B1E0E6E0F2E080E020E29D91992321F0B2
:1028A000811102C0908302C0208381E0319691E0C3
:1028B000AC33B90791F7ABE3B1E0E6E1F2E080E0D9
:1028C00020E29D91992321F0811102C0908302C0E2
:1028D000208381E0319691E0AB34B90791F71092F3
:1028E0000101ADCB0E945B0960939E0170939F0133
:1028F0008093A0019093A10180912702882351F138
:102900008091E4019091E501DC01ED91FC91028060
:10291000F381E02D40E06EE709958091E40190910C
:10292000E501DC01ED91FC910280F381E02D41E0B5
:1029300061E909958091E4019091E501DC01ED9157
:10294000FC910280F381E02D41E061E30995109252
:1029500027025FC0F0902602FF2009F44CC0CF2C64
:102960000F2C000CDD08C6010E94E41A892B31F0FF
:10297000C6010E94EB1AF82EE12C02C0EE24E3946B
:102980008091E4019091E501DC01ED91FC910280E0
:10299000F381E02D40E06EE709958091E40190918C
:1029A000E501DC01ED91FC910280F381E02D41E035
:1029B00062E009958091E4019091E501DC01ED91DF
:1029C000FC910280F381E02DE11002C062E201C0BF
:1029D00063E241E009958091E4019091E501DC0119
:1029E000ED91FC910280F381E02D41E06F2D09957E
:1029F000109226020EC08091B8019091B901892BE6
:102A000041F08091A20191E0980F9093A2010E9461
:102A10002D050E94E60428CBB394B0925802ECCA6C
:102A200010922A0210925B02E7CA85E592E028AF75
:102A30000E94380D28AD2093570210925802F09250
:102A40005B02DACA8AE191E090937401809373018A
:102A500080916F008B7F80936F0080916F008F7DDE
:102A600080936F0080914D0180934E0180914C01C5
:102A70008111FCCF80916F008D7F80936F0008954E
:102A8000CF93DF93E3E7F1E01382128288EE93E0C5
:102A9000A0E0B0E084839583A683B7838AE191E0C8
:102AA0009183808387E392E00E943B0D8CE592E066
:102AB0000E943B0DCAE2D2E019821A821B821C825C
:102AC0001D821E821F82188619861A861B861C8606
:102AD00087E392E00E943B0D19AA84E591E00E94F1
:102AE0003B0DEEE9F1E01082118212821382148212
:102AF000118E138E128E158E148E178E168E10A2B6
:102B000011A21092E5011092E40110922602109297
:102B1000270286E78093280282E3809329021582A8
:102B20008FEF9FEFDC018093E0019093E101A09390
:102B3000E201B093E30180E2E0ECF1E0DF011D92FD
:102B40008A95E9F7DF91CF910895FB01DC0102C07E
:102B500005900D9241505040D8F708959927882745
:102B60000895DB018F939F930E94C115BF91AF9190
:102B7000A29F800D911DA39F900DB29F900D1124D7
:102B800008950E94CC15A59F900DB49F900DA49F11
:102B9000800D911D11240895A29FB001B39FC00123
:102BA000A39F700D811D1124911DB29F700D811D79
:102BB0001124911D08955058BB27AA270E94F31590
:102BC0000C9432180E94F91738F00E94001820F077
:102BD00039F49F3F19F426F40C94CF170EF4E095C6
:102BE000E7FB0C94C917E92F0E94571858F3BA173E
:102BF000620773078407950720F079F4A6F50C9413
:102C000079180EF4E0950B2EBA2FA02D0B01B90107
:102C100090010C01CA01A0011124FF27591B99F052
:102C2000593F50F4503E68F11A16F040A22F232F5E
:102C3000342F4427585FF3CF469537952795A795AE
:102C4000F0405395C9F77EF41F16BA0B620B730B55
:102C5000840BBAF09150A1F0FF0FBB1F661F771FC6
:102C6000881FC2F70EC0BA0F621F731F841F48F47B
:102C7000879577956795B795F7959E3F08F0B0CF04
:102C80009395880F08F09927EE0F979587950895EB
:102C90000E94F91760F080E891E009F49EEF0E942D
:102CA000001828F040E851E071F45EEF0CC00C947D
:102CB000CF170C947918E92FE0780E94571840F349
:102CC000092E052AB1F3261737074807590738F0A8
:102CD0000E2E07F8E02569F0E025E0640AC0EF63F6
:102CE00007F8009407FADB01B9019D01DC01CA0174
:102CF000AD01EF930E94D7160E9432180E948B16E6
:102D00005F91552339F02BED3FE049E450FD49EC4C
:102D10000C94DC150895DF93DD27B92FBF7740E8C9
:102D20005FE31616170648075B0718F4D92F0E94B1
:102D300080189F938F937F936F930E947719EEE98A
:102D4000F0E00E94D2170E9432182F913F914F91CC
:102D50005F910E94CF18DD2351F09058A2EA2AED2E
:102D60003FE049EC5FE3D0785D270E94F315DF91E7
:102D70000C9432180E94A51708F481E008950E946F
:102D80000918E3950C9443180E94001858F00E940B
:102D9000F91740F029F45F3F29F00C94C91751113D
:102DA0000C947A180C94CF170E94571868F3992343
:102DB000B1F3552391F3951B550BBB27AA27621737
:102DC0007307840738F09F5F5F4F220F331F441F44
:102DD000AA1FA9F335D00E2E3AF0E0E832D0915078
:102DE0005040E695001CCAF72BD0FE2F29D0660F65
:102DF000771F881FBB1F261737074807AB07B0E8A8
:102E000009F0BB0B802DBF01FF2793585F4F3AF0AD
:102E10009E3F510578F00C94C9170C947A185F3FC7
:102E2000E4F3983ED4F3869577956795B795F79533
:102E30009F5FC9F7880F911D9695879597F908951B
:102E4000E1E0660F771F881FBB1F621773078407B7
:102E5000BA0720F0621B730B840BBA0BEE1F88F7C6
:102E6000E09508950E9439176894B1110C947A186E
:102E700008950E945F1888F09F5798F0B92F9927FE
:102E8000B751B0F0E1F0660F771F881F991F1AF055
:102E9000BA95C9F714C0B13091F00E947918B1E029
:102EA00008950C947918672F782F8827B85F39F028
:102EB000B93FCCF3869577956795B395D9F73EF4EE
:102EC00090958095709561957F4F8F4F9F4F089596
:102ED000E89409C097FB3EF49095809570956195B4
:102EE0007F4F8F4F9F4F9923A9F0F92F96E9BB276A
:102EF0009395F695879577956795B795F111F8CFE6
:102F0000FAF4BB0F11F460FF1BC06F5F7F4F8F4F50
:102F10009F4F16C0882311F096E911C0772321F046
:102F20009EE8872F762F05C0662371F096E8862FDE
:102F300070E060E02AF09A95660F771F881FDAF735
:102F4000880F9695879597F90895990F0008550F62
:102F5000AA0BE0E8FEEF16161706E807F907C0F01F
:102F600012161306E407F50798F0621B730B840B27
:102F7000950B39F40A2661F0232B242B252B21F401
:102F800008950A2609F4A140A6958FEF811D811DA1
:102F9000089597F99F6780E870E060E008959FEFDB
:102FA00080EC0895DF93CF931F930F93FF92EF92DE
:102FB000DF927B018C01689406C0DA2EEF010E943B
:102FC000CF18FE01E894A591259135914591559131
:102FD000A6F3EF010E94F315FE019701A801DA9410
:102FE00069F7DF90EF90FF900F911F91CF91DF91E4
:102FF000089500240A94161617061806090608955F
:1030000000240A94121613061406050608950C945B
:10301000CF170E945F18D8F3E894E0E0BB279F57D2
:10302000F0F02AED3FE049EC06C0EE0FBB0F661F43
:10303000771F881F28F0B23A62077307840728F0C9
:10304000B25A620B730B840BE3959A9572F7803832
:1030500030F49A95BB0F661F771F881FD2F79048F0
:103060000C948119092E0394000C11F4882352F05A
:10307000BB0F40F4BF2B11F460FF04C06F5F7F4FA4
:103080008F4F9F4F0895EF93E0FF07C0A2EA2AED0C
:103090003FE049EC5FEB0E94F3150E9432180F905D
:1030A000039401FC9058EBECF0E00C94941957FD5C
:1030B0009058440F551F59F05F3F71F04795880FA6
:1030C00097FB991F61F09F3F79F08795089512163D
:1030D00013061406551FF2CF4695F1DF08C01616E9
:1030E00017061806991FF1CF86957105610508949A
:1030F0000895E894BB2766277727CB0197F90895B1
:103100009B01AC0160E070E080E89FE30C947B19C8
:10311000FA01DC01AA0FBB1F9B01AC01BF5728F4C9
:10312000222733274427507820C0B75190F4AB2F83
:103130000024469537952795011CA395D2F30020CE
:1031400071F0220F331F441FB395DAF30ED00C94A5
:10315000DB1561307105A0E88A07B94630F49B01A0
:10316000AC016627772788279078309621F0208356
:1031700031834283538308950E94CF180C943218F0
:103180000E94F91738F00E94001820F0952311F0E2
:103190000C94C9170C94CF1711240C947A180E9420
:1031A000571870F3959FC1F3950F50E0551F629F1C
:1031B000F001729FBB27F00DB11D639FAA27F00D90
:1031C000B11DAA1F649F6627B00DA11D661F829FB7
:1031D0002227B00DA11D621F739FB00DA11D621F9C
:1031E000839FA00D611D221F749F3327A00D611DB9
:1031F000231F849F600D211D822F762F6A2F11249B
:103200009F5750409AF0F1F088234AF0EE0FFF1FCD
:10321000BB1F661F771F881F91505040A9F79E3F24
:10322000510580F00C94C9170C947A185F3FE4F3B1
:10323000983ED4F3869577956795B795F795E7957A
:103240009F5FC1F7FE2B880F911D9695879597F983
:1032500008959F930E9409180F9007FCEE5F0C944D
:10326000431819F416F40C94CF170C947F190E948C
:103270005F18B8F39923C9F3B6F39F57550B87FF2F
:103280000E948D190024A0E640EA900180585695CE
:10329000979528F4805C660F771F881F20F026170B
:1032A0003707480730F4621B730B840B2029312940
:1032B0004A2BA69517940794202531254A2758F7BD
:1032C000660F771F881F20F026173707480730F44E
:1032D000620B730B840B200D311D411DA09581F7EE
:1032E000B901842F9158880F9695879508959B0171
:1032F000AC010C94BC180E94D4160C9432189F3F59
:1033000031F0915020F4879577956795B795880FA0
:10331000911D9695879597F9089591505040660FA5
:10332000771F881FD2F708959F938F937F936F9392
:10333000FF93EF939B01AC010E94BC18EF91FF91AA
:103340000E94D2172F913F914F915F910C94BC181E
:10335000EE0FFF1F0590F491E02D0994CF93DF93BA
:103360008230910510F482E090E0E0912503F09125
:10337000260320E030E0C0E0D0E0309711F140813A
:10338000518148175907C0F04817590761F48281E5
:103390009381209719F09B838A832BC090932603F7
:1033A0008093250326C02115310519F042175307D4
:1033B00018F49A01BE01DF01EF010280F381E02DD4
:1033C000DCCF2115310509F1281B390B24303105DB
:1033D00090F412968D919C9113976115710521F0CF
:1033E000FB019383828304C090932603809325037B
:1033F000FD01329644C0FD01E20FF31F81939193CA
:10340000225031092D933C933AC0209123033091EF
:103410002403232B41F420910401309105013093C2
:1034200024032093230320910201309103012115ED
:10343000310541F42DB73EB7409106015091070187
:10344000241B350BE0912303F0912403E217F307CB
:10345000A0F42E1B3F0B2817390778F0AC014E5F04
:103460005F4F2417350748F04E0F5F1F509324031A
:10347000409323038193919302C0E0E0F0E0CF01F9
:10348000DF91CF9108950F931F93CF93DF93009710
:1034900009F48CC0FC01329713821282009125033B
:1034A000109126030115110581F420813181820FCD
:1034B000931F20912303309124032817390779F5AE
:1034C000F0932403E093230371C0D80140E050E05F
:1034D000AE17BF0750F412962D913C911397AD0192
:1034E0002115310509F1D901F3CF9D01DA013383AB
:1034F000228360817181860F971F8217930769F479
:10350000EC0128813981260F371F2E5F3F4F318311
:1035100020838A819B8193838283452B29F4F093B6
:103520002603E093250342C01396FC93EE93129773
:10353000ED01499159919E01240F351FE217F307C0
:1035400071F480819181840F951F029611969C934E
:103550008E938281938113969C938E931297E0E0D1
:10356000F0E0D80112968D919C911397009719F075
:10357000F8018C01F6CF8D919C9198012E5F3F4F01
:10358000820F931F209123033091240328173907BA
:1035900069F4309729F4109226031092250302C093
:1035A000138212821093240300932303DF91CF919F
:1035B0001F910F91089581E090E0F8940C94121BF4
:1035C00085FD0C94AE15806291110C94AE15815658
:1035D0008A51D8F708959111089581568A5108F4B7
:1035E000805285580895FB01DC0102C001900D92C4
:1035F00041505040D8F70895DC0101C06D9341500F
:103600005040E0F70895FB01DC014150504048F084
:1036100001900D920020C9F701C01D924150504009
:10362000E0F7089511E0C7E4D1E004C0FE010E9474
:0E363000A8192196C834D107C9F7F894FFCF26
:10363E00FF0100002703800000000000F1082E08A3
:10364E006B089508940800000000960872019D080A
:10365E002908BA07DC07C907475053002020204D20
:10366E004853464120537065656400202020475022
:0A367E00532053656E736F72000055
:00000001FF
